{
  "contractName": "DIDLedger",
  "abi": [
    {
      "constant": true,
      "inputs": [
        {
          "name": "",
          "type": "string"
        }
      ],
      "name": "nonce",
      "outputs": [
        {
          "name": "",
          "type": "uint256"
        }
      ],
      "payable": false,
      "stateMutability": "view",
      "type": "function"
    },
    {
      "constant": true,
      "inputs": [
        {
          "name": "userInfo",
          "type": "string"
        }
      ],
      "name": "create_view",
      "outputs": [
        {
          "components": [
            {
              "name": "id",
              "type": "string"
            },
            {
              "name": "contexts",
              "type": "string[]"
            },
            {
              "components": [
                {
                  "name": "id",
                  "type": "string"
                },
                {
                  "name": "keyType",
                  "type": "string"
                },
                {
                  "name": "pubKeyData",
                  "type": "string"
                },
                {
                  "name": "disable",
                  "type": "bool"
                }
              ],
              "name": "publicKeys",
              "type": "tuple[]"
            },
            {
              "name": "svcType",
              "type": "string"
            },
            {
              "name": "svcEndPoint",
              "type": "string"
            },
            {
              "name": "credentials",
              "type": "string[]"
            }
          ],
          "name": "",
          "type": "tuple"
        }
      ],
      "payable": false,
      "stateMutability": "view",
      "type": "function"
    },
    {
      "constant": false,
      "inputs": [
        {
          "name": "userInfo",
          "type": "string"
        },
        {
          "name": "addr",
          "type": "address"
        }
      ],
      "name": "create",
      "outputs": [
        {
          "name": "did",
          "type": "string"
        }
      ],
      "payable": false,
      "stateMutability": "nonpayable",
      "type": "function"
    },
    {
      "constant": true,
      "inputs": [
        {
          "name": "did",
          "type": "string"
        }
      ],
      "name": "getDocument",
      "outputs": [
        {
          "components": [
            {
              "name": "id",
              "type": "string"
            },
            {
              "name": "contexts",
              "type": "string[]"
            },
            {
              "components": [
                {
                  "name": "id",
                  "type": "string"
                },
                {
                  "name": "keyType",
                  "type": "string"
                },
                {
                  "name": "pubKeyData",
                  "type": "string"
                },
                {
                  "name": "disable",
                  "type": "bool"
                }
              ],
              "name": "publicKeys",
              "type": "tuple[]"
            },
            {
              "name": "svcType",
              "type": "string"
            },
            {
              "name": "svcEndPoint",
              "type": "string"
            },
            {
              "name": "credentials",
              "type": "string[]"
            }
          ],
          "name": "",
          "type": "tuple"
        }
      ],
      "payable": false,
      "stateMutability": "view",
      "type": "function"
    },
    {
      "constant": false,
      "inputs": [
        {
          "name": "userInfo",
          "type": "string"
        },
        {
          "name": "addr",
          "type": "address"
        }
      ],
      "name": "addPubKey",
      "outputs": [],
      "payable": false,
      "stateMutability": "nonpayable",
      "type": "function"
    },
    {
      "constant": false,
      "inputs": [
        {
          "name": "userInfo",
          "type": "string"
        },
        {
          "name": "addr",
          "type": "address"
        }
      ],
      "name": "addAddrKey",
      "outputs": [],
      "payable": false,
      "stateMutability": "nonpayable",
      "type": "function"
    },
    {
      "constant": false,
      "inputs": [
        {
          "name": "svcInfo",
          "type": "string"
        },
        {
          "name": "endPoint",
          "type": "string"
        },
        {
          "name": "svcType",
          "type": "string"
        },
        {
          "name": "addr",
          "type": "address"
        }
      ],
      "name": "createSvc",
      "outputs": [],
      "payable": false,
      "stateMutability": "nonpayable",
      "type": "function"
    }
  ],
  "bytecode": "0x608060405234801561001057600080fd5b506144b6806100206000396000f3fe608060405234801561001057600080fd5b506004361061009a576000357c0100000000000000000000000000000000000000000000000000000000900480639afd5f9b116100785780639afd5f9b1461011b578063bbe8b1fd1461014b578063e3fb073114610167578063fc14e4ee146101835761009a565b80634349c9f21461009f5780637ccb6a64146100bb57806384b47b0f146100eb575b600080fd5b6100b960048036036100b49190810190613b4b565b6101b3565b005b6100d560048036036100d09190810190613ac9565b6103a1565b6040516100e291906141ee565b60405180910390f35b61010560048036036101009190810190613b4b565b610b46565b60405161011291906140ca565b60405180910390f35b61013560048036036101309190810190613ac9565b6110fd565b60405161014291906141ee565b60405180910390f35b61016560048036036101609190810190613b9f565b611806565b005b610181600480360361017c9190810190613b4b565b611819565b005b61019d60048036036101989190810190613a88565b611a08565b6040516101aa9190614210565b60405180910390f35b81606073__DIDUtils______________________________63e948fc46836040518263ffffffff167c010000000000000000000000000000000000000000000000000000000002815260040161020991906140ec565b60006040518083038186803b15801561022157600080fd5b505af4158015610235573d6000803e3d6000fd5b505050506040513d6000823e3d601f19601f8201168201806040525061025e9190810190613b0a565b90506001600281111561026d57fe5b60018260405161027d9190614098565b908152602001604051809103902060009054906101000a900460ff1660028111156102a457fe5b146102e4576040517f08c379a00000000000000000000000000000000000000000000000000000000081526004016102db906141ae565b60405180910390fd5b606073__DIDUtils______________________________63e948fc46866040518263ffffffff167c010000000000000000000000000000000000000000000000000000000002815260040161033991906140ec565b60006040518083038186803b15801561035157600080fd5b505af4158015610365573d6000803e3d6000fd5b505050506040513d6000823e3d601f19601f8201168201806040525061038e9190810190613b0a565b905061039a8185611a36565b5050505050565b6103a961378c565b8173__DIDUtils______________________________63d06c84df826040518263ffffffff167c01000000000000000000000000000000000000000000000000000000000281526004016103fd91906140ec565b60206040518083038186803b15801561041557600080fd5b505af4158015610429573d6000803e3d6000fd5b505050506040513d601f19601f8201168201806040525061044d9190810190613a5f565b61048c576040517f08c379a00000000000000000000000000000000000000000000000000000000081526004016104839061416e565b60405180910390fd5b61049461378c565b6000846040516104a49190614098565b90815260200160405180910390206040518060c0016040529081600082018054600181600116156101000203166002900480601f0160208091040260200160405190810160405280929190818152602001828054600181600116156101000203166002900480156105565780601f1061052b57610100808354040283529160200191610556565b820191906000526020600020905b81548152906001019060200180831161053957829003601f168201915b5050505050815260200160018201805480602002602001604051908101604052809291908181526020016000905b82821015610640578382906000526020600020018054600181600116156101000203166002900480601f01602080910402602001604051908101604052809291908181526020018280546001816001161561010002031660029004801561062c5780601f106106015761010080835404028352916020019161062c565b820191906000526020600020905b81548152906001019060200180831161060f57829003601f168201915b505050505081526020019060010190610584565b50505050815260200160028201805480602002602001604051908101604052809291908181526020016000905b828210156108a05783829060005260206000209060040201604051806080016040529081600082018054600181600116156101000203166002900480601f0160208091040260200160405190810160405280929190818152602001828054600181600116156101000203166002900480156107295780601f106106fe57610100808354040283529160200191610729565b820191906000526020600020905b81548152906001019060200180831161070c57829003601f168201915b50505050508152602001600182018054600181600116156101000203166002900480601f0160208091040260200160405190810160405280929190818152602001828054600181600116156101000203166002900480156107cb5780601f106107a0576101008083540402835291602001916107cb565b820191906000526020600020905b8154815290600101906020018083116107ae57829003601f168201915b50505050508152602001600282018054600181600116156101000203166002900480601f01602080910402602001604051908101604052809291908181526020018280546001816001161561010002031660029004801561086d5780601f106108425761010080835404028352916020019161086d565b820191906000526020600020905b81548152906001019060200180831161085057829003601f168201915b505050505081526020016003820160009054906101000a900460ff1615151515815250508152602001906001019061066d565b505050508152602001600382018054600181600116156101000203166002900480601f0160208091040260200160405190810160405280929190818152602001828054600181600116156101000203166002900480156109415780601f1061091657610100808354040283529160200191610941565b820191906000526020600020905b81548152906001019060200180831161092457829003601f168201915b50505050508152602001600482018054600181600116156101000203166002900480601f0160208091040260200160405190810160405280929190818152602001828054600181600116156101000203166002900480156109e35780601f106109b8576101008083540402835291602001916109e3565b820191906000526020600020905b8154815290600101906020018083116109c657829003601f168201915b5050505050815260200160058201805480602002602001604051908101604052809291908181526020016000905b82821015610acd578382906000526020600020018054600181600116156101000203166002900480601f016020809104026020016040519081016040528092919081815260200182805460018160011615610100020316600290048015610ab95780601f10610a8e57610100808354040283529160200191610ab9565b820191906000526020600020905b815481529060010190602001808311610a9c57829003601f168201915b505050505081526020019060010190610a11565b5050505081525050905060008090505b816040015151811015610b3b5781604001518181518110610afa57fe5b60200260200101516060015115610b2e5781604001518181518110610b1b57fe5b60200260200101610b2a6137c2565b8152505b8080600101915050610add565b508092505050919050565b606082606073__DIDUtils______________________________63e948fc46836040518263ffffffff167c0100000000000000000000000000000000000000000000000000000000028152600401610b9e91906140ec565b60006040518083038186803b158015610bb657600080fd5b505af4158015610bca573d6000803e3d6000fd5b505050506040513d6000823e3d601f19601f82011682018060405250610bf39190810190613b0a565b905060006002811115610c0257fe5b600182604051610c129190614098565b908152602001604051809103902060009054906101000a900460ff166002811115610c3957fe5b14610c79576040517f08c379a0000000000000000000000000000000000000000000000000000000008152600401610c709061418e565b60405180910390fd5b73__DIDUtils______________________________63e948fc46866040518263ffffffff167c0100000000000000000000000000000000000000000000000000000000028152600401610ccc91906140ec565b60006040518083038186803b158015610ce457600080fd5b505af4158015610cf8573d6000803e3d6000fd5b505050506040513d6000823e3d601f19601f82011682018060405250610d219190810190613b0a565b9250606073__DIDUtils______________________________63a4d1444c8560016040518363ffffffff167c0100000000000000000000000000000000000000000000000000000000028152600401610d7b92919061410e565b60006040518083038186803b158015610d9357600080fd5b505af4158015610da7573d6000803e3d6000fd5b505050506040513d6000823e3d601f19601f82011682018060405250610dd09190810190613b0a565b9050606073__DIDUtils______________________________63bbec1843876040518263ffffffff167c0100000000000000000000000000000000000000000000000000000000028152600401610e2791906140af565b60006040518083038186803b158015610e3f57600080fd5b505af4158015610e53573d6000803e3d6000fd5b505050506040513d6000823e3d601f19601f82011682018060405250610e7c9190810190613b0a565b905060606040518060400160405280602081526020017f4563647361536563703235366b315265636f766572794d6574686f64323032308152509050610ec06137ec565b6040518060800160405280858152602001838152602001848152602001600015158152509050600087604051610ef69190614098565b90815260200160405180910390206001018060018154018082558091505090600182039060005260206000200160006040518060400160405280601c81526020017f68747470733a2f2f7777772e77332e6f72672f6e732f6469642f76310000000081525090919091509080519060200190610f73929190613816565b505086600088604051610f869190614098565b90815260200160405180910390206000019080519060200190610faa929190613816565b50600087604051610fbb9190614098565b908152602001604051809103902060020181908060018154018082558091505090600182039060005260206000209060040201600090919290919091506000820151816000019080519060200190611014929190613896565b506020820151816001019080519060200190611031929190613896565b50604082015181600201908051906020019061104e929190613896565b5060608201518160030160006101000a81548160ff021916908315150217905550505050600180886040516110839190614098565b908152602001604051809103902060006101000a81548160ff021916908360028111156110ac57fe5b021790555060006002886040516110c39190614098565b908152602001604051809103902060006101000a81548160ff021916908360018111156110ec57fe5b021790555050505050505092915050565b61110561378c565b606073__DIDUtils______________________________63e948fc46846040518263ffffffff167c010000000000000000000000000000000000000000000000000000000002815260040161115a91906140ec565b60006040518083038186803b15801561117257600080fd5b505af4158015611186573d6000803e3d6000fd5b505050506040513d6000823e3d601f19601f820116820180604052506111af9190810190613b0a565b90506111b961378c565b6000826040516111c99190614098565b90815260200160405180910390206040518060c0016040529081600082018054600181600116156101000203166002900480601f01602080910402602001604051908101604052809291908181526020018280546001816001161561010002031660029004801561127b5780601f106112505761010080835404028352916020019161127b565b820191906000526020600020905b81548152906001019060200180831161125e57829003601f168201915b5050505050815260200160018201805480602002602001604051908101604052809291908181526020016000905b82821015611365578382906000526020600020018054600181600116156101000203166002900480601f0160208091040260200160405190810160405280929190818152602001828054600181600116156101000203166002900480156113515780601f1061132657610100808354040283529160200191611351565b820191906000526020600020905b81548152906001019060200180831161133457829003601f168201915b5050505050815260200190600101906112a9565b50505050815260200160028201805480602002602001604051908101604052809291908181526020016000905b828210156115c55783829060005260206000209060040201604051806080016040529081600082018054600181600116156101000203166002900480601f01602080910402602001604051908101604052809291908181526020018280546001816001161561010002031660029004801561144e5780601f106114235761010080835404028352916020019161144e565b820191906000526020600020905b81548152906001019060200180831161143157829003601f168201915b50505050508152602001600182018054600181600116156101000203166002900480601f0160208091040260200160405190810160405280929190818152602001828054600181600116156101000203166002900480156114f05780601f106114c5576101008083540402835291602001916114f0565b820191906000526020600020905b8154815290600101906020018083116114d357829003601f168201915b50505050508152602001600282018054600181600116156101000203166002900480601f0160208091040260200160405190810160405280929190818152602001828054600181600116156101000203166002900480156115925780601f1061156757610100808354040283529160200191611592565b820191906000526020600020905b81548152906001019060200180831161157557829003601f168201915b505050505081526020016003820160009054906101000a900460ff16151515158152505081526020019060010190611392565b505050508152602001600382018054600181600116156101000203166002900480601f0160208091040260200160405190810160405280929190818152602001828054600181600116156101000203166002900480156116665780601f1061163b57610100808354040283529160200191611666565b820191906000526020600020905b81548152906001019060200180831161164957829003601f168201915b50505050508152602001600482018054600181600116156101000203166002900480601f0160208091040260200160405190810160405280929190818152602001828054600181600116156101000203166002900480156117085780601f106116dd57610100808354040283529160200191611708565b820191906000526020600020905b8154815290600101906020018083116116eb57829003601f168201915b5050505050815260200160058201805480602002602001604051908101604052809291908181526020016000905b828210156117f2578382906000526020600020018054600181600116156101000203166002900480601f0160208091040260200160405190810160405280929190818152602001828054600181600116156101000203166002900480156117de5780601f106117b3576101008083540402835291602001916117de565b820191906000526020600020905b8154815290600101906020018083116117c157829003601f168201915b505050505081526020019060010190611736565b505050508152505090508092505050919050565b611812848484846125db565b5050505050565b81606073__DIDUtils______________________________63e948fc46836040518263ffffffff167c010000000000000000000000000000000000000000000000000000000002815260040161186f91906140ec565b60006040518083038186803b15801561188757600080fd5b505af415801561189b573d6000803e3d6000fd5b505050506040513d6000823e3d601f19601f820116820180604052506118c49190810190613b0a565b9050600160028111156118d357fe5b6001826040516118e39190614098565b908152602001604051809103902060009054906101000a900460ff16600281111561190a57fe5b1461194a576040517f08c379a0000000000000000000000000000000000000000000000000000000008152600401611941906141ae565b60405180910390fd5b606073__DIDUtils______________________________63e948fc46866040518263ffffffff167c010000000000000000000000000000000000000000000000000000000002815260040161199f91906140ec565b60006040518083038186803b1580156119b757600080fd5b505af41580156119cb573d6000803e3d6000fd5b505050506040513d6000823e3d601f19601f820116820180604052506119f49190810190613b0a565b9050611a008185612c00565b505050505050565b6003818051602081018201805184825260208301602085012081835280955050505050506000915090505481565b8173__DIDUtils______________________________63d06c84df826040518263ffffffff167c0100000000000000000000000000000000000000000000000000000000028152600401611a8a91906140ec565b60206040518083038186803b158015611aa257600080fd5b505af4158015611ab6573d6000803e3d6000fd5b505050506040513d601f19601f82011682018060405250611ada9190810190613a5f565b611b19576040517f08c379a0000000000000000000000000000000000000000000000000000000008152600401611b109061416e565b60405180910390fd5b8260016002811115611b2757fe5b600182604051611b379190614098565b908152602001604051809103902060009054906101000a900460ff166002811115611b5e57fe5b14611b9e576040517f08c379a0000000000000000000000000000000000000000000000000000000008152600401611b95906141ae565b60405180910390fd5b8383611ba861378c565b600083604051611bb89190614098565b90815260200160405180910390206040518060c0016040529081600082018054600181600116156101000203166002900480601f016020809104026020016040519081016040528092919081815260200182805460018160011615610100020316600290048015611c6a5780601f10611c3f57610100808354040283529160200191611c6a565b820191906000526020600020905b815481529060010190602001808311611c4d57829003601f168201915b5050505050815260200160018201805480602002602001604051908101604052809291908181526020016000905b82821015611d54578382906000526020600020018054600181600116156101000203166002900480601f016020809104026020016040519081016040528092919081815260200182805460018160011615610100020316600290048015611d405780601f10611d1557610100808354040283529160200191611d40565b820191906000526020600020905b815481529060010190602001808311611d2357829003601f168201915b505050505081526020019060010190611c98565b50505050815260200160028201805480602002602001604051908101604052809291908181526020016000905b82821015611fb45783829060005260206000209060040201604051806080016040529081600082018054600181600116156101000203166002900480601f016020809104026020016040519081016040528092919081815260200182805460018160011615610100020316600290048015611e3d5780601f10611e1257610100808354040283529160200191611e3d565b820191906000526020600020905b815481529060010190602001808311611e2057829003601f168201915b50505050508152602001600182018054600181600116156101000203166002900480601f016020809104026020016040519081016040528092919081815260200182805460018160011615610100020316600290048015611edf5780601f10611eb457610100808354040283529160200191611edf565b820191906000526020600020905b815481529060010190602001808311611ec257829003601f168201915b50505050508152602001600282018054600181600116156101000203166002900480601f016020809104026020016040519081016040528092919081815260200182805460018160011615610100020316600290048015611f815780601f10611f5657610100808354040283529160200191611f81565b820191906000526020600020905b815481529060010190602001808311611f6457829003601f168201915b505050505081526020016003820160009054906101000a900460ff16151515158152505081526020019060010190611d81565b505050508152602001600382018054600181600116156101000203166002900480601f0160208091040260200160405190810160405280929190818152602001828054600181600116156101000203166002900480156120555780601f1061202a57610100808354040283529160200191612055565b820191906000526020600020905b81548152906001019060200180831161203857829003601f168201915b50505050508152602001600482018054600181600116156101000203166002900480601f0160208091040260200160405190810160405280929190818152602001828054600181600116156101000203166002900480156120f75780601f106120cc576101008083540402835291602001916120f7565b820191906000526020600020905b8154815290600101906020018083116120da57829003601f168201915b5050505050815260200160058201805480602002602001604051908101604052809291908181526020016000905b828210156121e1578382906000526020600020018054600181600116156101000203166002900480601f0160208091040260200160405190810160405280929190818152602001828054600181600116156101000203166002900480156121cd5780601f106121a2576101008083540402835291602001916121cd565b820191906000526020600020905b8154815290600101906020018083116121b057829003601f168201915b505050505081526020019060010190612125565b50505050815250509050606073__DIDUtils______________________________63bbec1843846040518263ffffffff167c010000000000000000000000000000000000000000000000000000000002815260040161224091906140af565b60006040518083038186803b15801561225857600080fd5b505af415801561226c573d6000803e3d6000fd5b505050506040513d6000823e3d601f19601f820116820180604052506122959190810190613b0a565b905060008090505b8260400151518110156125d0578180519060200120836040015182815181106122c257fe5b602002602001015160400151805190602001201415612316576040517f08c379a000000000000000000000000000000000000000000000000000000000815260040161230d906141ce565b60405180910390fd5b6000808a6040516123279190614098565b9081526020016040518091039020600201805490509050606073__DIDUtils______________________________63a4d1444c8c600185016040518363ffffffff167c010000000000000000000000000000000000000000000000000000000002815260040161239892919061413e565b60006040518083038186803b1580156123b057600080fd5b505af41580156123c4573d6000803e3d6000fd5b505050506040513d6000823e3d601f19601f820116820180604052506123ed9190810190613b0a565b905060606040518060400160405280602081526020017f4563647361536563703235366b315265636f766572794d6574686f64323032308152509050606073__DIDUtils______________________________63bbec18438d6040518263ffffffff167c010000000000000000000000000000000000000000000000000000000002815260040161247e91906140af565b60006040518083038186803b15801561249657600080fd5b505af41580156124aa573d6000803e3d6000fd5b505050506040513d6000823e3d601f19601f820116820180604052506124d39190810190613b0a565b905060008d6040516124e59190614098565b9081526020016040518091039020600201604051806080016040528085815260200184815260200183815260200160001515815250908060018154018082558091505090600182039060005260206000209060040201600090919290919091506000820151816000019080519060200190612561929190613896565b50602082015181600101908051906020019061257e929190613896565b50604082015181600201908051906020019061259b929190613896565b5060608201518160030160006101000a81548160ff02191690831515021790555050505050505050808060010191505061229d565b505050505050505050565b606084606073__DIDUtils______________________________63e948fc46836040518263ffffffff167c010000000000000000000000000000000000000000000000000000000002815260040161263391906140ec565b60006040518083038186803b15801561264b57600080fd5b505af415801561265f573d6000803e3d6000fd5b505050506040513d6000823e3d601f19601f820116820180604052506126889190810190613b0a565b90506000600281111561269757fe5b6001826040516126a79190614098565b908152602001604051809103902060009054906101000a900460ff1660028111156126ce57fe5b1461270e576040517f08c379a00000000000000000000000000000000000000000000000000000000081526004016127059061418e565b60405180910390fd5b73__DIDUtils______________________________63e948fc46886040518263ffffffff167c010000000000000000000000000000000000000000000000000000000002815260040161276191906140ec565b60006040518083038186803b15801561277957600080fd5b505af415801561278d573d6000803e3d6000fd5b505050506040513d6000823e3d601f19601f820116820180604052506127b69190810190613b0a565b9250606073__DIDUtils______________________________63a4d1444c8560016040518363ffffffff167c010000000000000000000000000000000000000000000000000000000002815260040161281092919061410e565b60006040518083038186803b15801561282857600080fd5b505af415801561283c573d6000803e3d6000fd5b505050506040513d6000823e3d601f19601f820116820180604052506128659190810190613b0a565b9050606073__DIDUtils______________________________63bbec1843876040518263ffffffff167c01000000000000000000000000000000000000000000000000000000000281526004016128bc91906140af565b60006040518083038186803b1580156128d457600080fd5b505af41580156128e8573d6000803e3d6000fd5b505050506040513d6000823e3d601f19601f820116820180604052506129119190810190613b0a565b905060606040518060400160405280602081526020017f4563647361536563703235366b315265636f766572794d6574686f643230323081525090506129556137ec565b60405180608001604052808581526020018381526020018481526020016000151581525090508660008860405161298c9190614098565b908152602001604051809103902060000190805190602001906129b0929190613816565b506000876040516129c19190614098565b90815260200160405180910390206001018060018154018082558091505090600182039060005260206000200160006040518060400160405280601c81526020017f68747470733a2f2f7777772e77332e6f72672f6e732f6469642f76310000000081525090919091509080519060200190612a3e929190613816565b5050600087604051612a509190614098565b908152602001604051809103902060020181908060018154018082558091505090600182039060005260206000209060040201600090919290919091506000820151816000019080519060200190612aa9929190613896565b506020820151816001019080519060200190612ac6929190613896565b506040820151816002019080519060200190612ae3929190613896565b5060608201518160030160006101000a81548160ff02191690831515021790555050505089600088604051612b189190614098565b90815260200160405180910390206004019080519060200190612b3c929190613816565b5088600088604051612b4e9190614098565b90815260200160405180910390206003019080519060200190612b72929190613816565b506001600288604051612b859190614098565b908152602001604051809103902060006101000a81548160ff02191690836001811115612bae57fe5b021790555060018088604051612bc49190614098565b908152602001604051809103902060006101000a81548160ff02191690836002811115612bed57fe5b0217905550505050505050949350505050565b60608273__DIDUtils______________________________63d06c84df826040518263ffffffff167c0100000000000000000000000000000000000000000000000000000000028152600401612c5691906140ec565b60206040518083038186803b158015612c6e57600080fd5b505af4158015612c82573d6000803e3d6000fd5b505050506040513d601f19601f82011682018060405250612ca69190810190613a5f565b612ce5576040517f08c379a0000000000000000000000000000000000000000000000000000000008152600401612cdc9061416e565b60405180910390fd5b8360016002811115612cf357fe5b600182604051612d039190614098565b908152602001604051809103902060009054906101000a900460ff166002811115612d2a57fe5b14612d6a576040517f08c379a0000000000000000000000000000000000000000000000000000000008152600401612d61906141ae565b60405180910390fd5b8484612d7461378c565b600083604051612d849190614098565b90815260200160405180910390206040518060c0016040529081600082018054600181600116156101000203166002900480601f016020809104026020016040519081016040528092919081815260200182805460018160011615610100020316600290048015612e365780601f10612e0b57610100808354040283529160200191612e36565b820191906000526020600020905b815481529060010190602001808311612e1957829003601f168201915b5050505050815260200160018201805480602002602001604051908101604052809291908181526020016000905b82821015612f20578382906000526020600020018054600181600116156101000203166002900480601f016020809104026020016040519081016040528092919081815260200182805460018160011615610100020316600290048015612f0c5780601f10612ee157610100808354040283529160200191612f0c565b820191906000526020600020905b815481529060010190602001808311612eef57829003601f168201915b505050505081526020019060010190612e64565b50505050815260200160028201805480602002602001604051908101604052809291908181526020016000905b828210156131805783829060005260206000209060040201604051806080016040529081600082018054600181600116156101000203166002900480601f0160208091040260200160405190810160405280929190818152602001828054600181600116156101000203166002900480156130095780601f10612fde57610100808354040283529160200191613009565b820191906000526020600020905b815481529060010190602001808311612fec57829003601f168201915b50505050508152602001600182018054600181600116156101000203166002900480601f0160208091040260200160405190810160405280929190818152602001828054600181600116156101000203166002900480156130ab5780601f10613080576101008083540402835291602001916130ab565b820191906000526020600020905b81548152906001019060200180831161308e57829003601f168201915b50505050508152602001600282018054600181600116156101000203166002900480601f01602080910402602001604051908101604052809291908181526020018280546001816001161561010002031660029004801561314d5780601f106131225761010080835404028352916020019161314d565b820191906000526020600020905b81548152906001019060200180831161313057829003601f168201915b505050505081526020016003820160009054906101000a900460ff16151515158152505081526020019060010190612f4d565b505050508152602001600382018054600181600116156101000203166002900480601f0160208091040260200160405190810160405280929190818152602001828054600181600116156101000203166002900480156132215780601f106131f657610100808354040283529160200191613221565b820191906000526020600020905b81548152906001019060200180831161320457829003601f168201915b50505050508152602001600482018054600181600116156101000203166002900480601f0160208091040260200160405190810160405280929190818152602001828054600181600116156101000203166002900480156132c35780601f10613298576101008083540402835291602001916132c3565b820191906000526020600020905b8154815290600101906020018083116132a657829003601f168201915b5050505050815260200160058201805480602002602001604051908101604052809291908181526020016000905b828210156133ad578382906000526020600020018054600181600116156101000203166002900480601f0160208091040260200160405190810160405280929190818152602001828054600181600116156101000203166002900480156133995780601f1061336e57610100808354040283529160200191613399565b820191906000526020600020905b81548152906001019060200180831161337c57829003601f168201915b5050505050815260200190600101906132f1565b50505050815250509050606073__DIDUtils______________________________63bbec1843846040518263ffffffff167c010000000000000000000000000000000000000000000000000000000002815260040161340c91906140af565b60006040518083038186803b15801561342457600080fd5b505af4158015613438573d6000803e3d6000fd5b505050506040513d6000823e3d601f19601f820116820180604052506134619190810190613b0a565b905060008090505b82604001515181101561377f5781805190602001208360400151828151811061348e57fe5b6020026020010151604001518051906020012014156134e2576040517f08c379a00000000000000000000000000000000000000000000000000000000081526004016134d9906141ce565b60405180910390fd5b6000808b6040516134f39190614098565b9081526020016040518091039020600201805490509050606073__DIDUtils______________________________63a4d1444c8d600185016040518363ffffffff167c010000000000000000000000000000000000000000000000000000000002815260040161356492919061413e565b60006040518083038186803b15801561357c57600080fd5b505af4158015613590573d6000803e3d6000fd5b505050506040513d6000823e3d601f19601f820116820180604052506135b99190810190613b0a565b9050606060405180606001604052806021815260200161445c602191399050606073__DIDUtils______________________________63bbec18438e6040518263ffffffff167c010000000000000000000000000000000000000000000000000000000002815260040161362d91906140af565b60006040518083038186803b15801561364557600080fd5b505af4158015613659573d6000803e3d6000fd5b505050506040513d6000823e3d601f19601f820116820180604052506136829190810190613b0a565b905060008e6040516136949190614098565b9081526020016040518091039020600201604051806080016040528085815260200184815260200183815260200160001515815250908060018154018082558091505090600182039060005260206000209060040201600090919290919091506000820151816000019080519060200190613710929190613896565b50602082015181600101908051906020019061372d929190613896565b50604082015181600201908051906020019061374a929190613896565b5060608201518160030160006101000a81548160ff021916908315150217905550505050505050508080600101915050613469565b5050505050505092915050565b6040518060c001604052806060815260200160608152602001606081526020016060815260200160608152602001606081525090565b60405180608001604052806060815260200160608152602001606081526020016000151581525090565b60405180608001604052806060815260200160608152602001606081526020016000151581525090565b828054600181600116156101000203166002900490600052602060002090601f016020900481019282601f1061385757805160ff1916838001178555613885565b82800160010185558215613885579182015b82811115613884578251825591602001919060010190613869565b5b5090506138929190613916565b5090565b828054600181600116156101000203166002900490600052602060002090601f016020900481019282601f106138d757805160ff1916838001178555613905565b82800160010185558215613905579182015b828111156139045782518255916020019190600101906138e9565b5b5090506139129190613916565b5090565b61393891905b8082111561393457600081600090555060010161391c565b5090565b90565b600061394782356143b8565b905092915050565b600061395b82516143ca565b905092915050565b600082601f83011261397457600080fd5b813561398761398282614258565b61422b565b915080825260208301602083018583830111156139a357600080fd5b6139ae838284614408565b50505092915050565b600082601f8301126139c857600080fd5b81356139db6139d682614284565b61422b565b915080825260208301602083018583830111156139f757600080fd5b613a02838284614408565b50505092915050565b600082601f830112613a1c57600080fd5b8151613a2f613a2a82614284565b61422b565b91508082526020830160208301858383011115613a4b57600080fd5b613a56838284614417565b50505092915050565b600060208284031215613a7157600080fd5b6000613a7f8482850161394f565b91505092915050565b600060208284031215613a9a57600080fd5b600082013567ffffffffffffffff811115613ab457600080fd5b613ac084828501613963565b91505092915050565b600060208284031215613adb57600080fd5b600082013567ffffffffffffffff811115613af557600080fd5b613b01848285016139b7565b91505092915050565b600060208284031215613b1c57600080fd5b600082015167ffffffffffffffff811115613b3657600080fd5b613b4284828501613a0b565b91505092915050565b60008060408385031215613b5e57600080fd5b600083013567ffffffffffffffff811115613b7857600080fd5b613b84858286016139b7565b9250506020613b958582860161393b565b9150509250929050565b60008060008060808587031215613bb557600080fd5b600085013567ffffffffffffffff811115613bcf57600080fd5b613bdb878288016139b7565b945050602085013567ffffffffffffffff811115613bf857600080fd5b613c04878288016139b7565b935050604085013567ffffffffffffffff811115613c2157600080fd5b613c2d878288016139b7565b9250506060613c3e8782880161393b565b91505092959194509250565b6000613c568383613e24565b905092915050565b6000613c6a8383614009565b905092915050565b613c7b81614370565b82525050565b6000613c8c826142ca565b613c968185614310565b935083602082028501613ca8856142b0565b60005b84811015613ce1578383038852613cc3838351613c4a565b9250613cce826142f6565b9150602088019750600181019050613cab565b508196508694505050505092915050565b6000613cfd826142d5565b613d078185614321565b935083602082028501613d19856142bd565b60005b84811015613d52578383038852613d34838351613c5e565b9250613d3f82614303565b9150602088019750600181019050613d1c565b508196508694505050505092915050565b613d6c81614382565b82525050565b613d7b816143f6565b82525050565b6000613d8c826142eb565b613d968185614343565b9350613da6818560208601614417565b613daf8161444a565b840191505092915050565b6000613dc5826142eb565b613dcf8185614354565b9350613ddf818560208601614417565b613de88161444a565b840191505092915050565b6000613dfe826142eb565b613e088185614365565b9350613e18818560208601614417565b80840191505092915050565b6000613e2f826142e0565b613e398185614332565b9350613e49818560208601614417565b613e528161444a565b840191505092915050565b6000613e6a600e83614343565b91507f496e76616c696420666f726d61740000000000000000000000000000000000006000830152602082019050919050565b6000613eaa601783614343565b91507f416c72656164792045786973747320446f63756d656e740000000000000000006000830152602082019050919050565b6000613eea601383614343565b91507f4e6f6e65206f72204465616374697661746564000000000000000000000000006000830152602082019050919050565b6000613f2a601683614343565b91507f416c7265616479204578697374732041646472657373000000000000000000006000830152602082019050919050565b600060c0830160008301518482036000860152613f7a8282613e24565b91505060208301518482036020860152613f948282613c81565b91505060408301518482036040860152613fae8282613cf2565b91505060608301518482036060860152613fc88282613e24565b91505060808301518482036080860152613fe28282613e24565b91505060a083015184820360a0860152613ffc8282613c81565b9150508091505092915050565b600060808301600083015184820360008601526140268282613e24565b915050602083015184820360208601526140408282613e24565b9150506040830151848203604086015261405a8282613e24565b915050606083015161406f6060860182613d63565b508091505092915050565b614083816143ae565b82525050565b614092816143ae565b82525050565b60006140a48284613df3565b915081905092915050565b60006020820190506140c46000830184613c72565b92915050565b600060208201905081810360008301526140e48184613d81565b905092915050565b600060208201905081810360008301526141068184613dba565b905092915050565b600060408201905081810360008301526141288185613dba565b90506141376020830184613d72565b9392505050565b600060408201905081810360008301526141588185613dba565b90506141676020830184614089565b9392505050565b6000602082019050818103600083015261418781613e5d565b9050919050565b600060208201905081810360008301526141a781613e9d565b9050919050565b600060208201905081810360008301526141c781613edd565b9050919050565b600060208201905081810360008301526141e781613f1d565b9050919050565b600060208201905081810360008301526142088184613f5d565b905092915050565b6000602082019050614225600083018461407a565b92915050565b6000604051905081810181811067ffffffffffffffff8211171561424e57600080fd5b8060405250919050565b600067ffffffffffffffff82111561426f57600080fd5b601f19601f8301169050602081019050919050565b600067ffffffffffffffff82111561429b57600080fd5b601f19601f8301169050602081019050919050565b6000602082019050919050565b6000602082019050919050565b600081519050919050565b600081519050919050565b600081519050919050565b600081519050919050565b6000602082019050919050565b6000602082019050919050565b600082825260208201905092915050565b600082825260208201905092915050565b600082825260208201905092915050565b600082825260208201905092915050565b600082825260208201905092915050565b600081905092915050565b600061437b8261438e565b9050919050565b60008115159050919050565b600073ffffffffffffffffffffffffffffffffffffffff82169050919050565b6000819050919050565b60006143c3826143d6565b9050919050565b60008115159050919050565b600073ffffffffffffffffffffffffffffffffffffffff82169050919050565b6000614401826143ae565b9050919050565b82818337600083830152505050565b60005b8381101561443557808201518184015260208101905061441a565b83811115614444576000848401525b50505050565b6000601f19601f830116905091905056fe4563647361536563703235366b31566572696669636174696f6e4b657932303139a265627a7a7230582067a450b7af550ddd4d23aa84ce096244665d1a9a396f680d683c99c0021df3be6c6578706572696d656e74616cf50037",
  "source": "pragma solidity 0.5.6;\npragma experimental ABIEncoderV2;\n\nimport './DIDStorage.sol';\nimport './DIDUtils.sol';\n\n//#orign : \n/**\n * @title DidLedger\n * @dev This contract is did document storage implementation\n */\n// \"did:kt:6f4303aa6cea2b0fae462fa9cc792443c03a0609\"\ncontract DIDLedger is DIDStorage {\n\n    modifier checkExistDom(string memory userInfo){\n        string memory did = DIDUtils.genDid(userInfo);\n//#orign        string memory did = DIDUtils.genDid(msg.sender);\n        //1-1-1.  did  ,     **\n        require(didState[did] == DIDState.None,\"Already Exists Document\");\n        _;\n    }\n    \n    modifier recheckExistDom(string memory userInfo){\n        string memory did = DIDUtils.genDid(userInfo);\n        require(didState[did] == DIDState.Active,\"None or Deactivated\");\n        _;\n    }\n\n    modifier checkActiveDom(string memory did){\n        require(didState[did] == DIDState.Active,\"None or Deactivated\");\n        _;\n    }\n\n    modifier checkExistAddr(string memory did,address addr_){// pubkey  \n        Document memory dom = documents[did];\n        string memory addr = DIDUtils.genAddrKey(addr_);\n        //uint256 dup = 0\n        for(uint256 i=0;i<dom.publicKeys.length;i++){\n            require(keccak256(bytes(dom.publicKeys[i].pubKeyData)) != keccak256(bytes(addr)),'Already Exists Address');\n            _;\n        }\n    }\n\n    modifier verifyFormat(string memory did){\n        require(DIDUtils.verifyDidFormat(did),'Invalid format');\n        _;\n    }\n\n\n    \n    function create_view(\n        string memory userInfo) public view\n        returns(Document memory)\n    {\n        string memory did = DIDUtils.genDid(userInfo);\n        Document memory dom = documents[did];\n        // for(uint256 i=0;i<dom.publicKeys.length;i++){\n        //     if(dom.publicKeys[i].disable) delete dom.publicKeys[i];\n        // }\n        return dom;\n\n\n    }\n\n    // 1. did  did \n    // 1-1. did    checkExistDom \n    function create(\n        string memory userInfo,\n        address addr) public \n        checkExistDom(userInfo)\n        returns(string memory did)\n    {\n        //1-1-2.  did  , did   did \n        //userInfo = '6f4303aa6cea2b0fae462fa9cc792443c03a0609';\n        did = DIDUtils.genDid(userInfo);\n        string memory keyID = DIDUtils.genPublicKeyID(did,1);\n        string memory addrKey = DIDUtils.genAddrKey(addr);\n        string memory keyType = 'EcdsaSecp256k1RecoveryMethod2020';\n        PublicKey memory defaultKey = PublicKey(keyID,keyType,addrKey,false);\n                                   // https://www.w3.org/ns/did ->  \n        documents[did].contexts.push(\"https://www.w3.org/ns/did/v1\");\n        documents[did].id = did;\n        documents[did].publicKeys.push(defaultKey);\n        didState[did] = DIDState.Active;\n        idType[did] = IdType.User;\n    }\n\n    function getDocument(string memory did) public view \n        verifyFormat(did) \n        returns(Document memory) \n    {\n        Document memory dom = documents[did];\n        // for(uint256 i=0;i<dom.services.length;i++){\n        //     if(dom.services[i].disable) delete dom.services[i];\n        // }\n        for(uint256 i=0;i<dom.publicKeys.length;i++){\n            if(dom.publicKeys[i].disable) delete dom.publicKeys[i];\n        }\n        return  dom;\n    }\n\n\n    //'EcdsaSecp256k1VerificationKey2019'\n\n    function addPubKey(\n        string memory userInfo,\n        address addr) public \n        recheckExistDom(userInfo)\n    {\n        string memory did = DIDUtils.genDid(userInfo);\n        _addPubKey(did,addr);        \n    }\n    \n    \n    function _addPubKey(\n        string memory did,\n        address addr) internal \n        verifyFormat(did) checkActiveDom(did) checkExistAddr(did,addr)\n        returns(string memory)\n    {\n        uint256 index = documents[did].publicKeys.length;\n        string memory keyID = DIDUtils.genPublicKeyID(did,index+1);\n        string memory keyType = 'EcdsaSecp256k1VerificationKey2019';\n        string memory keyAddr = DIDUtils.genAddrKey(addr);\n        documents[did].publicKeys.push(PublicKey(keyID,keyType,keyAddr,false));\n    }\n    \n    //'EcdsaSecp256k1RecoveryMethod2020'\n    \n    function addAddrKey(\n        string memory userInfo,\n        address addr) public \n        recheckExistDom(userInfo)\n    {\n        string memory did = DIDUtils.genDid(userInfo);\n        _addAddrKey(did,addr);        \n    }\n   \n    function _addAddrKey(\n        string memory did,\n        address addr) internal \n        verifyFormat(did) checkActiveDom(did) checkExistAddr(did,addr)\n    {\n        uint256 index = documents[did].publicKeys.length;\n        string memory keyID = DIDUtils.genPublicKeyID(did,index+1);\n        string memory keyType = 'EcdsaSecp256k1RecoveryMethod2020';\n        string memory keyAddr = DIDUtils.genAddrKey(addr);\n        documents[did].publicKeys.push(PublicKey(keyID,keyType,keyAddr,false));  \n    }\n\n    // add service\n    function createSvc(\n        string memory svcInfo,\n        string memory endPoint,\n        string memory svcType,\n        address addr) public \n    {\n        _createSvc(svcInfo,endPoint,svcType,addr);    \n    }\n\n\n    function _createSvc(\n        string memory svcInfo,\n        string memory endPoint,\n        string memory svcType,\n        address addr) internal \n        checkExistDom(svcInfo)\n        returns(string memory svcId)\n    {\n        svcId = DIDUtils.genDid(svcInfo);\n        string memory keyID = DIDUtils.genPublicKeyID(svcId,1);\n        string memory addrKey = DIDUtils.genAddrKey(addr);\n        string memory keyType = 'EcdsaSecp256k1RecoveryMethod2020';\n        PublicKey memory defaultKey = PublicKey(keyID,keyType,addrKey,false);\n        documents[svcId].id = svcId;\n        documents[svcId].contexts.push(\"https://www.w3.org/ns/did/v1\");\n        documents[svcId].publicKeys.push(defaultKey);\n        documents[svcId].svcEndPoint=endPoint;\n        documents[svcId].svcType=svcType;\n        idType[svcId] = IdType.Service;\n        didState[svcId] = DIDState.Active;\n    }\n\n\n    //delete publickey did serviceDID\n\n\n\n\n    function recoverSignature(\n        string memory did, \n        string memory fType, \n        uint8 sigV, bytes32 sigR, bytes32 sigS) internal \n        returns(address)\n    {\n        bytes32 hash =  DIDUtils.genSignHash(fType, address(this), nonce[did], did);\n        address signer = ecrecover(hash, sigV, sigR, sigS);\n        nonce[did]++;\n        return signer;\n    }\n\n}\n\n//",
  "sourcePath": "/home/pslab154/project/did-registry-dev/contracts/DIDLedger.sol",
  "compiler": {
    "name": "solc",
    "version": "0.5.6+commit.b259423e.Emscripten.clang"
  },
  "schemaVersion": "2.0.2",
  "updatedAt": "2022-04-17T07:35:40.091Z"
}