{
  "contractName": "DIDLedger",
  "abi": [
    {
      "constant": true,
      "inputs": [
        {
          "name": "",
          "type": "string"
        }
      ],
      "name": "nonce",
      "outputs": [
        {
          "name": "",
          "type": "uint256"
        }
      ],
      "payable": false,
      "stateMutability": "view",
      "type": "function"
    },
    {
      "constant": false,
      "inputs": [
        {
          "name": "userInfo",
          "type": "string"
        },
        {
          "name": "addr",
          "type": "address"
        }
      ],
      "name": "create",
      "outputs": [
        {
          "name": "did",
          "type": "string"
        }
      ],
      "payable": false,
      "stateMutability": "nonpayable",
      "type": "function"
    },
    {
      "constant": true,
      "inputs": [
        {
          "name": "did",
          "type": "string"
        }
      ],
      "name": "getDocument",
      "outputs": [
        {
          "components": [
            {
              "name": "id",
              "type": "string"
            },
            {
              "name": "contexts",
              "type": "string[]"
            },
            {
              "components": [
                {
                  "name": "id",
                  "type": "string"
                },
                {
                  "name": "keyType",
                  "type": "string"
                },
                {
                  "name": "pubKeyData",
                  "type": "string"
                },
                {
                  "name": "disable",
                  "type": "bool"
                }
              ],
              "name": "publicKeys",
              "type": "tuple[]"
            },
            {
              "name": "svcType",
              "type": "string"
            },
            {
              "name": "svcEndPoint",
              "type": "string"
            },
            {
              "name": "credentials",
              "type": "string[]"
            }
          ],
          "name": "",
          "type": "tuple"
        }
      ],
      "payable": false,
      "stateMutability": "view",
      "type": "function"
    },
    {
      "constant": false,
      "inputs": [
        {
          "name": "userInfo",
          "type": "string"
        },
        {
          "name": "addr",
          "type": "address"
        }
      ],
      "name": "addPubKey",
      "outputs": [],
      "payable": false,
      "stateMutability": "nonpayable",
      "type": "function"
    },
    {
      "constant": false,
      "inputs": [
        {
          "name": "userInfo",
          "type": "string"
        },
        {
          "name": "addr",
          "type": "address"
        }
      ],
      "name": "addAddrKey",
      "outputs": [],
      "payable": false,
      "stateMutability": "nonpayable",
      "type": "function"
    },
    {
      "constant": false,
      "inputs": [
        {
          "name": "svcInfo",
          "type": "string"
        },
        {
          "name": "endPoint",
          "type": "string"
        },
        {
          "name": "svcType",
          "type": "string"
        },
        {
          "name": "addr",
          "type": "address"
        }
      ],
      "name": "createSvc",
      "outputs": [],
      "payable": false,
      "stateMutability": "nonpayable",
      "type": "function"
    }
  ],
  "bytecode": "0x608060405234801561001057600080fd5b50613d62806100206000396000f3fe608060405234801561001057600080fd5b506004361061007f576000357c0100000000000000000000000000000000000000000000000000000000900480634349c9f2146100845780637ccb6a64146100a057806384b47b0f146100d0578063bbe8b1fd14610100578063e3fb07311461011c578063fc14e4ee14610138575b600080fd5b61009e600480360361009991908101906133f7565b610168565b005b6100ba60048036036100b59190810190613375565b610356565b6040516100c79190613a9a565b60405180910390f35b6100ea60048036036100e591908101906133f7565b610afb565b6040516100f79190613976565b60405180910390f35b61011a6004803603610115919081019061344b565b6110b2565b005b610136600480360361013191908101906133f7565b6110c5565b005b610152600480360361014d9190810190613334565b6112b4565b60405161015f9190613abc565b60405180910390f35b81606073__DIDUtils______________________________63e948fc46836040518263ffffffff167c01000000000000000000000000000000000000000000000000000000000281526004016101be9190613998565b60006040518083038186803b1580156101d657600080fd5b505af41580156101ea573d6000803e3d6000fd5b505050506040513d6000823e3d601f19601f8201168201806040525061021391908101906133b6565b90506001600281111561022257fe5b6001826040516102329190613944565b908152602001604051809103902060009054906101000a900460ff16600281111561025957fe5b14610299576040517f08c379a000000000000000000000000000000000000000000000000000000000815260040161029090613a5a565b60405180910390fd5b606073__DIDUtils______________________________63e948fc46866040518263ffffffff167c01000000000000000000000000000000000000000000000000000000000281526004016102ee9190613998565b60006040518083038186803b15801561030657600080fd5b505af415801561031a573d6000803e3d6000fd5b505050506040513d6000823e3d601f19601f8201168201806040525061034391908101906133b6565b905061034f81856112e2565b5050505050565b61035e613038565b8173__DIDUtils______________________________63d06c84df826040518263ffffffff167c01000000000000000000000000000000000000000000000000000000000281526004016103b29190613998565b60206040518083038186803b1580156103ca57600080fd5b505af41580156103de573d6000803e3d6000fd5b505050506040513d601f19601f82011682018060405250610402919081019061330b565b610441576040517f08c379a000000000000000000000000000000000000000000000000000000000815260040161043890613a1a565b60405180910390fd5b610449613038565b6000846040516104599190613944565b90815260200160405180910390206040518060c0016040529081600082018054600181600116156101000203166002900480601f01602080910402602001604051908101604052809291908181526020018280546001816001161561010002031660029004801561050b5780601f106104e05761010080835404028352916020019161050b565b820191906000526020600020905b8154815290600101906020018083116104ee57829003601f168201915b5050505050815260200160018201805480602002602001604051908101604052809291908181526020016000905b828210156105f5578382906000526020600020018054600181600116156101000203166002900480601f0160208091040260200160405190810160405280929190818152602001828054600181600116156101000203166002900480156105e15780601f106105b6576101008083540402835291602001916105e1565b820191906000526020600020905b8154815290600101906020018083116105c457829003601f168201915b505050505081526020019060010190610539565b50505050815260200160028201805480602002602001604051908101604052809291908181526020016000905b828210156108555783829060005260206000209060040201604051806080016040529081600082018054600181600116156101000203166002900480601f0160208091040260200160405190810160405280929190818152602001828054600181600116156101000203166002900480156106de5780601f106106b3576101008083540402835291602001916106de565b820191906000526020600020905b8154815290600101906020018083116106c157829003601f168201915b50505050508152602001600182018054600181600116156101000203166002900480601f0160208091040260200160405190810160405280929190818152602001828054600181600116156101000203166002900480156107805780601f1061075557610100808354040283529160200191610780565b820191906000526020600020905b81548152906001019060200180831161076357829003601f168201915b50505050508152602001600282018054600181600116156101000203166002900480601f0160208091040260200160405190810160405280929190818152602001828054600181600116156101000203166002900480156108225780601f106107f757610100808354040283529160200191610822565b820191906000526020600020905b81548152906001019060200180831161080557829003601f168201915b505050505081526020016003820160009054906101000a900460ff16151515158152505081526020019060010190610622565b505050508152602001600382018054600181600116156101000203166002900480601f0160208091040260200160405190810160405280929190818152602001828054600181600116156101000203166002900480156108f65780601f106108cb576101008083540402835291602001916108f6565b820191906000526020600020905b8154815290600101906020018083116108d957829003601f168201915b50505050508152602001600482018054600181600116156101000203166002900480601f0160208091040260200160405190810160405280929190818152602001828054600181600116156101000203166002900480156109985780601f1061096d57610100808354040283529160200191610998565b820191906000526020600020905b81548152906001019060200180831161097b57829003601f168201915b5050505050815260200160058201805480602002602001604051908101604052809291908181526020016000905b82821015610a82578382906000526020600020018054600181600116156101000203166002900480601f016020809104026020016040519081016040528092919081815260200182805460018160011615610100020316600290048015610a6e5780601f10610a4357610100808354040283529160200191610a6e565b820191906000526020600020905b815481529060010190602001808311610a5157829003601f168201915b5050505050815260200190600101906109c6565b5050505081525050905060008090505b816040015151811015610af05781604001518181518110610aaf57fe5b60200260200101516060015115610ae35781604001518181518110610ad057fe5b60200260200101610adf61306e565b8152505b8080600101915050610a92565b508092505050919050565b606082606073__DIDUtils______________________________63e948fc46836040518263ffffffff167c0100000000000000000000000000000000000000000000000000000000028152600401610b539190613998565b60006040518083038186803b158015610b6b57600080fd5b505af4158015610b7f573d6000803e3d6000fd5b505050506040513d6000823e3d601f19601f82011682018060405250610ba891908101906133b6565b905060006002811115610bb757fe5b600182604051610bc79190613944565b908152602001604051809103902060009054906101000a900460ff166002811115610bee57fe5b14610c2e576040517f08c379a0000000000000000000000000000000000000000000000000000000008152600401610c2590613a3a565b60405180910390fd5b73__DIDUtils______________________________63e948fc46866040518263ffffffff167c0100000000000000000000000000000000000000000000000000000000028152600401610c819190613998565b60006040518083038186803b158015610c9957600080fd5b505af4158015610cad573d6000803e3d6000fd5b505050506040513d6000823e3d601f19601f82011682018060405250610cd691908101906133b6565b9250606073__DIDUtils______________________________63a4d1444c8560016040518363ffffffff167c0100000000000000000000000000000000000000000000000000000000028152600401610d309291906139ba565b60006040518083038186803b158015610d4857600080fd5b505af4158015610d5c573d6000803e3d6000fd5b505050506040513d6000823e3d601f19601f82011682018060405250610d8591908101906133b6565b9050606073__DIDUtils______________________________63bbec1843876040518263ffffffff167c0100000000000000000000000000000000000000000000000000000000028152600401610ddc919061395b565b60006040518083038186803b158015610df457600080fd5b505af4158015610e08573d6000803e3d6000fd5b505050506040513d6000823e3d601f19601f82011682018060405250610e3191908101906133b6565b905060606040518060400160405280602081526020017f4563647361536563703235366b315265636f766572794d6574686f64323032308152509050610e75613098565b6040518060800160405280858152602001838152602001848152602001600015158152509050600087604051610eab9190613944565b90815260200160405180910390206001018060018154018082558091505090600182039060005260206000200160006040518060400160405280601c81526020017f68747470733a2f2f7777772e77332e6f72672f6e732f6469642f76310000000081525090919091509080519060200190610f289291906130c2565b505086600088604051610f3b9190613944565b90815260200160405180910390206000019080519060200190610f5f9291906130c2565b50600087604051610f709190613944565b908152602001604051809103902060020181908060018154018082558091505090600182039060005260206000209060040201600090919290919091506000820151816000019080519060200190610fc9929190613142565b506020820151816001019080519060200190610fe6929190613142565b506040820151816002019080519060200190611003929190613142565b5060608201518160030160006101000a81548160ff021916908315150217905550505050600180886040516110389190613944565b908152602001604051809103902060006101000a81548160ff0219169083600281111561106157fe5b021790555060006002886040516110789190613944565b908152602001604051809103902060006101000a81548160ff021916908360018111156110a157fe5b021790555050505050505092915050565b6110be84848484611e87565b5050505050565b81606073__DIDUtils______________________________63e948fc46836040518263ffffffff167c010000000000000000000000000000000000000000000000000000000002815260040161111b9190613998565b60006040518083038186803b15801561113357600080fd5b505af4158015611147573d6000803e3d6000fd5b505050506040513d6000823e3d601f19601f8201168201806040525061117091908101906133b6565b90506001600281111561117f57fe5b60018260405161118f9190613944565b908152602001604051809103902060009054906101000a900460ff1660028111156111b657fe5b146111f6576040517f08c379a00000000000000000000000000000000000000000000000000000000081526004016111ed90613a5a565b60405180910390fd5b606073__DIDUtils______________________________63e948fc46866040518263ffffffff167c010000000000000000000000000000000000000000000000000000000002815260040161124b9190613998565b60006040518083038186803b15801561126357600080fd5b505af4158015611277573d6000803e3d6000fd5b505050506040513d6000823e3d601f19601f820116820180604052506112a091908101906133b6565b90506112ac81856124ac565b505050505050565b6003818051602081018201805184825260208301602085012081835280955050505050506000915090505481565b8173__DIDUtils______________________________63d06c84df826040518263ffffffff167c01000000000000000000000000000000000000000000000000000000000281526004016113369190613998565b60206040518083038186803b15801561134e57600080fd5b505af4158015611362573d6000803e3d6000fd5b505050506040513d601f19601f82011682018060405250611386919081019061330b565b6113c5576040517f08c379a00000000000000000000000000000000000000000000000000000000081526004016113bc90613a1a565b60405180910390fd5b82600160028111156113d357fe5b6001826040516113e39190613944565b908152602001604051809103902060009054906101000a900460ff16600281111561140a57fe5b1461144a576040517f08c379a000000000000000000000000000000000000000000000000000000000815260040161144190613a5a565b60405180910390fd5b8383611454613038565b6000836040516114649190613944565b90815260200160405180910390206040518060c0016040529081600082018054600181600116156101000203166002900480601f0160208091040260200160405190810160405280929190818152602001828054600181600116156101000203166002900480156115165780601f106114eb57610100808354040283529160200191611516565b820191906000526020600020905b8154815290600101906020018083116114f957829003601f168201915b5050505050815260200160018201805480602002602001604051908101604052809291908181526020016000905b82821015611600578382906000526020600020018054600181600116156101000203166002900480601f0160208091040260200160405190810160405280929190818152602001828054600181600116156101000203166002900480156115ec5780601f106115c1576101008083540402835291602001916115ec565b820191906000526020600020905b8154815290600101906020018083116115cf57829003601f168201915b505050505081526020019060010190611544565b50505050815260200160028201805480602002602001604051908101604052809291908181526020016000905b828210156118605783829060005260206000209060040201604051806080016040529081600082018054600181600116156101000203166002900480601f0160208091040260200160405190810160405280929190818152602001828054600181600116156101000203166002900480156116e95780601f106116be576101008083540402835291602001916116e9565b820191906000526020600020905b8154815290600101906020018083116116cc57829003601f168201915b50505050508152602001600182018054600181600116156101000203166002900480601f01602080910402602001604051908101604052809291908181526020018280546001816001161561010002031660029004801561178b5780601f106117605761010080835404028352916020019161178b565b820191906000526020600020905b81548152906001019060200180831161176e57829003601f168201915b50505050508152602001600282018054600181600116156101000203166002900480601f01602080910402602001604051908101604052809291908181526020018280546001816001161561010002031660029004801561182d5780601f106118025761010080835404028352916020019161182d565b820191906000526020600020905b81548152906001019060200180831161181057829003601f168201915b505050505081526020016003820160009054906101000a900460ff1615151515815250508152602001906001019061162d565b505050508152602001600382018054600181600116156101000203166002900480601f0160208091040260200160405190810160405280929190818152602001828054600181600116156101000203166002900480156119015780601f106118d657610100808354040283529160200191611901565b820191906000526020600020905b8154815290600101906020018083116118e457829003601f168201915b50505050508152602001600482018054600181600116156101000203166002900480601f0160208091040260200160405190810160405280929190818152602001828054600181600116156101000203166002900480156119a35780601f10611978576101008083540402835291602001916119a3565b820191906000526020600020905b81548152906001019060200180831161198657829003601f168201915b5050505050815260200160058201805480602002602001604051908101604052809291908181526020016000905b82821015611a8d578382906000526020600020018054600181600116156101000203166002900480601f016020809104026020016040519081016040528092919081815260200182805460018160011615610100020316600290048015611a795780601f10611a4e57610100808354040283529160200191611a79565b820191906000526020600020905b815481529060010190602001808311611a5c57829003601f168201915b5050505050815260200190600101906119d1565b50505050815250509050606073__DIDUtils______________________________63bbec1843846040518263ffffffff167c0100000000000000000000000000000000000000000000000000000000028152600401611aec919061395b565b60006040518083038186803b158015611b0457600080fd5b505af4158015611b18573d6000803e3d6000fd5b505050506040513d6000823e3d601f19601f82011682018060405250611b4191908101906133b6565b905060008090505b826040015151811015611e7c57818051906020012083604001518281518110611b6e57fe5b602002602001015160400151805190602001201415611bc2576040517f08c379a0000000000000000000000000000000000000000000000000000000008152600401611bb990613a7a565b60405180910390fd5b6000808a604051611bd39190613944565b9081526020016040518091039020600201805490509050606073__DIDUtils______________________________63a4d1444c8c600185016040518363ffffffff167c0100000000000000000000000000000000000000000000000000000000028152600401611c449291906139ea565b60006040518083038186803b158015611c5c57600080fd5b505af4158015611c70573d6000803e3d6000fd5b505050506040513d6000823e3d601f19601f82011682018060405250611c9991908101906133b6565b905060606040518060400160405280602081526020017f4563647361536563703235366b315265636f766572794d6574686f64323032308152509050606073__DIDUtils______________________________63bbec18438d6040518263ffffffff167c0100000000000000000000000000000000000000000000000000000000028152600401611d2a919061395b565b60006040518083038186803b158015611d4257600080fd5b505af4158015611d56573d6000803e3d6000fd5b505050506040513d6000823e3d601f19601f82011682018060405250611d7f91908101906133b6565b905060008d604051611d919190613944565b9081526020016040518091039020600201604051806080016040528085815260200184815260200183815260200160001515815250908060018154018082558091505090600182039060005260206000209060040201600090919290919091506000820151816000019080519060200190611e0d929190613142565b506020820151816001019080519060200190611e2a929190613142565b506040820151816002019080519060200190611e47929190613142565b5060608201518160030160006101000a81548160ff021916908315150217905550505050505050508080600101915050611b49565b505050505050505050565b606084606073__DIDUtils______________________________63e948fc46836040518263ffffffff167c0100000000000000000000000000000000000000000000000000000000028152600401611edf9190613998565b60006040518083038186803b158015611ef757600080fd5b505af4158015611f0b573d6000803e3d6000fd5b505050506040513d6000823e3d601f19601f82011682018060405250611f3491908101906133b6565b905060006002811115611f4357fe5b600182604051611f539190613944565b908152602001604051809103902060009054906101000a900460ff166002811115611f7a57fe5b14611fba576040517f08c379a0000000000000000000000000000000000000000000000000000000008152600401611fb190613a3a565b60405180910390fd5b73__DIDUtils______________________________63e948fc46886040518263ffffffff167c010000000000000000000000000000000000000000000000000000000002815260040161200d9190613998565b60006040518083038186803b15801561202557600080fd5b505af4158015612039573d6000803e3d6000fd5b505050506040513d6000823e3d601f19601f8201168201806040525061206291908101906133b6565b9250606073__DIDUtils______________________________63a4d1444c8560016040518363ffffffff167c01000000000000000000000000000000000000000000000000000000000281526004016120bc9291906139ba565b60006040518083038186803b1580156120d457600080fd5b505af41580156120e8573d6000803e3d6000fd5b505050506040513d6000823e3d601f19601f8201168201806040525061211191908101906133b6565b9050606073__DIDUtils______________________________63bbec1843876040518263ffffffff167c0100000000000000000000000000000000000000000000000000000000028152600401612168919061395b565b60006040518083038186803b15801561218057600080fd5b505af4158015612194573d6000803e3d6000fd5b505050506040513d6000823e3d601f19601f820116820180604052506121bd91908101906133b6565b905060606040518060400160405280602081526020017f4563647361536563703235366b315265636f766572794d6574686f64323032308152509050612201613098565b6040518060800160405280858152602001838152602001848152602001600015158152509050866000886040516122389190613944565b9081526020016040518091039020600001908051906020019061225c9291906130c2565b5060008760405161226d9190613944565b90815260200160405180910390206001018060018154018082558091505090600182039060005260206000200160006040518060400160405280601c81526020017f68747470733a2f2f7777772e77332e6f72672f6e732f6469642f763100000000815250909190915090805190602001906122ea9291906130c2565b50506000876040516122fc9190613944565b908152602001604051809103902060020181908060018154018082558091505090600182039060005260206000209060040201600090919290919091506000820151816000019080519060200190612355929190613142565b506020820151816001019080519060200190612372929190613142565b50604082015181600201908051906020019061238f929190613142565b5060608201518160030160006101000a81548160ff021916908315150217905550505050896000886040516123c49190613944565b908152602001604051809103902060040190805190602001906123e89291906130c2565b50886000886040516123fa9190613944565b9081526020016040518091039020600301908051906020019061241e9291906130c2565b5060016002886040516124319190613944565b908152602001604051809103902060006101000a81548160ff0219169083600181111561245a57fe5b0217905550600180886040516124709190613944565b908152602001604051809103902060006101000a81548160ff0219169083600281111561249957fe5b0217905550505050505050949350505050565b60608273__DIDUtils______________________________63d06c84df826040518263ffffffff167c01000000000000000000000000000000000000000000000000000000000281526004016125029190613998565b60206040518083038186803b15801561251a57600080fd5b505af415801561252e573d6000803e3d6000fd5b505050506040513d601f19601f82011682018060405250612552919081019061330b565b612591576040517f08c379a000000000000000000000000000000000000000000000000000000000815260040161258890613a1a565b60405180910390fd5b836001600281111561259f57fe5b6001826040516125af9190613944565b908152602001604051809103902060009054906101000a900460ff1660028111156125d657fe5b14612616576040517f08c379a000000000000000000000000000000000000000000000000000000000815260040161260d90613a5a565b60405180910390fd5b8484612620613038565b6000836040516126309190613944565b90815260200160405180910390206040518060c0016040529081600082018054600181600116156101000203166002900480601f0160208091040260200160405190810160405280929190818152602001828054600181600116156101000203166002900480156126e25780601f106126b7576101008083540402835291602001916126e2565b820191906000526020600020905b8154815290600101906020018083116126c557829003601f168201915b5050505050815260200160018201805480602002602001604051908101604052809291908181526020016000905b828210156127cc578382906000526020600020018054600181600116156101000203166002900480601f0160208091040260200160405190810160405280929190818152602001828054600181600116156101000203166002900480156127b85780601f1061278d576101008083540402835291602001916127b8565b820191906000526020600020905b81548152906001019060200180831161279b57829003601f168201915b505050505081526020019060010190612710565b50505050815260200160028201805480602002602001604051908101604052809291908181526020016000905b82821015612a2c5783829060005260206000209060040201604051806080016040529081600082018054600181600116156101000203166002900480601f0160208091040260200160405190810160405280929190818152602001828054600181600116156101000203166002900480156128b55780601f1061288a576101008083540402835291602001916128b5565b820191906000526020600020905b81548152906001019060200180831161289857829003601f168201915b50505050508152602001600182018054600181600116156101000203166002900480601f0160208091040260200160405190810160405280929190818152602001828054600181600116156101000203166002900480156129575780601f1061292c57610100808354040283529160200191612957565b820191906000526020600020905b81548152906001019060200180831161293a57829003601f168201915b50505050508152602001600282018054600181600116156101000203166002900480601f0160208091040260200160405190810160405280929190818152602001828054600181600116156101000203166002900480156129f95780601f106129ce576101008083540402835291602001916129f9565b820191906000526020600020905b8154815290600101906020018083116129dc57829003601f168201915b505050505081526020016003820160009054906101000a900460ff161515151581525050815260200190600101906127f9565b505050508152602001600382018054600181600116156101000203166002900480601f016020809104026020016040519081016040528092919081815260200182805460018160011615610100020316600290048015612acd5780601f10612aa257610100808354040283529160200191612acd565b820191906000526020600020905b815481529060010190602001808311612ab057829003601f168201915b50505050508152602001600482018054600181600116156101000203166002900480601f016020809104026020016040519081016040528092919081815260200182805460018160011615610100020316600290048015612b6f5780601f10612b4457610100808354040283529160200191612b6f565b820191906000526020600020905b815481529060010190602001808311612b5257829003601f168201915b5050505050815260200160058201805480602002602001604051908101604052809291908181526020016000905b82821015612c59578382906000526020600020018054600181600116156101000203166002900480601f016020809104026020016040519081016040528092919081815260200182805460018160011615610100020316600290048015612c455780601f10612c1a57610100808354040283529160200191612c45565b820191906000526020600020905b815481529060010190602001808311612c2857829003601f168201915b505050505081526020019060010190612b9d565b50505050815250509050606073__DIDUtils______________________________63bbec1843846040518263ffffffff167c0100000000000000000000000000000000000000000000000000000000028152600401612cb8919061395b565b60006040518083038186803b158015612cd057600080fd5b505af4158015612ce4573d6000803e3d6000fd5b505050506040513d6000823e3d601f19601f82011682018060405250612d0d91908101906133b6565b905060008090505b82604001515181101561302b57818051906020012083604001518281518110612d3a57fe5b602002602001015160400151805190602001201415612d8e576040517f08c379a0000000000000000000000000000000000000000000000000000000008152600401612d8590613a7a565b60405180910390fd5b6000808b604051612d9f9190613944565b9081526020016040518091039020600201805490509050606073__DIDUtils______________________________63a4d1444c8d600185016040518363ffffffff167c0100000000000000000000000000000000000000000000000000000000028152600401612e109291906139ea565b60006040518083038186803b158015612e2857600080fd5b505af4158015612e3c573d6000803e3d6000fd5b505050506040513d6000823e3d601f19601f82011682018060405250612e6591908101906133b6565b90506060604051806060016040528060218152602001613d08602191399050606073__DIDUtils______________________________63bbec18438e6040518263ffffffff167c0100000000000000000000000000000000000000000000000000000000028152600401612ed9919061395b565b60006040518083038186803b158015612ef157600080fd5b505af4158015612f05573d6000803e3d6000fd5b505050506040513d6000823e3d601f19601f82011682018060405250612f2e91908101906133b6565b905060008e604051612f409190613944565b9081526020016040518091039020600201604051806080016040528085815260200184815260200183815260200160001515815250908060018154018082558091505090600182039060005260206000209060040201600090919290919091506000820151816000019080519060200190612fbc929190613142565b506020820151816001019080519060200190612fd9929190613142565b506040820151816002019080519060200190612ff6929190613142565b5060608201518160030160006101000a81548160ff021916908315150217905550505050505050508080600101915050612d15565b5050505050505092915050565b6040518060c001604052806060815260200160608152602001606081526020016060815260200160608152602001606081525090565b60405180608001604052806060815260200160608152602001606081526020016000151581525090565b60405180608001604052806060815260200160608152602001606081526020016000151581525090565b828054600181600116156101000203166002900490600052602060002090601f016020900481019282601f1061310357805160ff1916838001178555613131565b82800160010185558215613131579182015b82811115613130578251825591602001919060010190613115565b5b50905061313e91906131c2565b5090565b828054600181600116156101000203166002900490600052602060002090601f016020900481019282601f1061318357805160ff19168380011785556131b1565b828001600101855582156131b1579182015b828111156131b0578251825591602001919060010190613195565b5b5090506131be91906131c2565b5090565b6131e491905b808211156131e05760008160009055506001016131c8565b5090565b90565b60006131f38235613c64565b905092915050565b60006132078251613c76565b905092915050565b600082601f83011261322057600080fd5b813561323361322e82613b04565b613ad7565b9150808252602083016020830185838301111561324f57600080fd5b61325a838284613cb4565b50505092915050565b600082601f83011261327457600080fd5b813561328761328282613b30565b613ad7565b915080825260208301602083018583830111156132a357600080fd5b6132ae838284613cb4565b50505092915050565b600082601f8301126132c857600080fd5b81516132db6132d682613b30565b613ad7565b915080825260208301602083018583830111156132f757600080fd5b613302838284613cc3565b50505092915050565b60006020828403121561331d57600080fd5b600061332b848285016131fb565b91505092915050565b60006020828403121561334657600080fd5b600082013567ffffffffffffffff81111561336057600080fd5b61336c8482850161320f565b91505092915050565b60006020828403121561338757600080fd5b600082013567ffffffffffffffff8111156133a157600080fd5b6133ad84828501613263565b91505092915050565b6000602082840312156133c857600080fd5b600082015167ffffffffffffffff8111156133e257600080fd5b6133ee848285016132b7565b91505092915050565b6000806040838503121561340a57600080fd5b600083013567ffffffffffffffff81111561342457600080fd5b61343085828601613263565b9250506020613441858286016131e7565b9150509250929050565b6000806000806080858703121561346157600080fd5b600085013567ffffffffffffffff81111561347b57600080fd5b61348787828801613263565b945050602085013567ffffffffffffffff8111156134a457600080fd5b6134b087828801613263565b935050604085013567ffffffffffffffff8111156134cd57600080fd5b6134d987828801613263565b92505060606134ea878288016131e7565b91505092959194509250565b600061350283836136d0565b905092915050565b600061351683836138b5565b905092915050565b61352781613c1c565b82525050565b600061353882613b76565b6135428185613bbc565b93508360208202850161355485613b5c565b60005b8481101561358d57838303885261356f8383516134f6565b925061357a82613ba2565b9150602088019750600181019050613557565b508196508694505050505092915050565b60006135a982613b81565b6135b38185613bcd565b9350836020820285016135c585613b69565b60005b848110156135fe5783830388526135e083835161350a565b92506135eb82613baf565b91506020880197506001810190506135c8565b508196508694505050505092915050565b61361881613c2e565b82525050565b61362781613ca2565b82525050565b600061363882613b97565b6136428185613bef565b9350613652818560208601613cc3565b61365b81613cf6565b840191505092915050565b600061367182613b97565b61367b8185613c00565b935061368b818560208601613cc3565b61369481613cf6565b840191505092915050565b60006136aa82613b97565b6136b48185613c11565b93506136c4818560208601613cc3565b80840191505092915050565b60006136db82613b8c565b6136e58185613bde565b93506136f5818560208601613cc3565b6136fe81613cf6565b840191505092915050565b6000613716600e83613bef565b91507f496e76616c696420666f726d61740000000000000000000000000000000000006000830152602082019050919050565b6000613756601783613bef565b91507f416c72656164792045786973747320446f63756d656e740000000000000000006000830152602082019050919050565b6000613796601383613bef565b91507f4e6f6e65206f72204465616374697661746564000000000000000000000000006000830152602082019050919050565b60006137d6601683613bef565b91507f416c7265616479204578697374732041646472657373000000000000000000006000830152602082019050919050565b600060c083016000830151848203600086015261382682826136d0565b91505060208301518482036020860152613840828261352d565b9150506040830151848203604086015261385a828261359e565b9150506060830151848203606086015261387482826136d0565b9150506080830151848203608086015261388e82826136d0565b91505060a083015184820360a08601526138a8828261352d565b9150508091505092915050565b600060808301600083015184820360008601526138d282826136d0565b915050602083015184820360208601526138ec82826136d0565b9150506040830151848203604086015261390682826136d0565b915050606083015161391b606086018261360f565b508091505092915050565b61392f81613c5a565b82525050565b61393e81613c5a565b82525050565b6000613950828461369f565b915081905092915050565b6000602082019050613970600083018461351e565b92915050565b60006020820190508181036000830152613990818461362d565b905092915050565b600060208201905081810360008301526139b28184613666565b905092915050565b600060408201905081810360008301526139d48185613666565b90506139e3602083018461361e565b9392505050565b60006040820190508181036000830152613a048185613666565b9050613a136020830184613935565b9392505050565b60006020820190508181036000830152613a3381613709565b9050919050565b60006020820190508181036000830152613a5381613749565b9050919050565b60006020820190508181036000830152613a7381613789565b9050919050565b60006020820190508181036000830152613a93816137c9565b9050919050565b60006020820190508181036000830152613ab48184613809565b905092915050565b6000602082019050613ad16000830184613926565b92915050565b6000604051905081810181811067ffffffffffffffff82111715613afa57600080fd5b8060405250919050565b600067ffffffffffffffff821115613b1b57600080fd5b601f19601f8301169050602081019050919050565b600067ffffffffffffffff821115613b4757600080fd5b601f19601f8301169050602081019050919050565b6000602082019050919050565b6000602082019050919050565b600081519050919050565b600081519050919050565b600081519050919050565b600081519050919050565b6000602082019050919050565b6000602082019050919050565b600082825260208201905092915050565b600082825260208201905092915050565b600082825260208201905092915050565b600082825260208201905092915050565b600082825260208201905092915050565b600081905092915050565b6000613c2782613c3a565b9050919050565b60008115159050919050565b600073ffffffffffffffffffffffffffffffffffffffff82169050919050565b6000819050919050565b6000613c6f82613c82565b9050919050565b60008115159050919050565b600073ffffffffffffffffffffffffffffffffffffffff82169050919050565b6000613cad82613c5a565b9050919050565b82818337600083830152505050565b60005b83811015613ce1578082015181840152602081019050613cc6565b83811115613cf0576000848401525b50505050565b6000601f19601f830116905091905056fe4563647361536563703235366b31566572696669636174696f6e4b657932303139a265627a7a72305820131b4f16cdf7c337c8a56639d2812c0bd12fca145393922349e94a1bf7c4e1d46c6578706572696d656e74616cf50037",
  "source": "pragma solidity 0.5.6;\npragma experimental ABIEncoderV2;\n\nimport './DIDStorage.sol';\nimport './DIDUtils.sol';\n\n//#orign : \n/**\n * @title DidLedger\n * @dev This contract is did document storage implementation\n */\n// \"did:kt:6f4303aa6cea2b0fae462fa9cc792443c03a0609\"\ncontract DIDLedger is DIDStorage {\n\n    modifier checkExistDom(string memory userInfo){\n        string memory did = DIDUtils.genDid(userInfo);\n//#orign        string memory did = DIDUtils.genDid(msg.sender);\n        //1-1-1.  did  ,     **\n        require(didState[did] == DIDState.None,\"Already Exists Document\");\n        _;\n    }\n    \n    modifier recheckExistDom(string memory userInfo){\n        string memory did = DIDUtils.genDid(userInfo);\n        require(didState[did] == DIDState.Active,\"None or Deactivated\");\n        _;\n    }\n\n    modifier checkActiveDom(string memory did){\n        require(didState[did] == DIDState.Active,\"None or Deactivated\");\n        _;\n    }\n\n    modifier checkExistAddr(string memory did,address addr_){// pubkey  \n        Document memory dom = documents[did];\n        string memory addr = DIDUtils.genAddrKey(addr_);\n        //uint256 dup = 0\n        for(uint256 i=0;i<dom.publicKeys.length;i++){\n            require(keccak256(bytes(dom.publicKeys[i].pubKeyData)) != keccak256(bytes(addr)),'Already Exists Address');\n            _;\n        }\n    }\n\n    modifier verifyFormat(string memory did){\n        require(DIDUtils.verifyDidFormat(did),'Invalid format');\n        _;\n    }\n\n\n    \n    // 1. did  did \n    // 1-1. did    checkExistDom \n    function create(\n        string memory userInfo,\n        address addr) public \n        checkExistDom(userInfo)\n        returns(string memory did)\n    {\n        //1-1-2.  did  , did   did \n        //userInfo = '6f4303aa6cea2b0fae462fa9cc792443c03a0609';\n        did = DIDUtils.genDid(userInfo);\n        string memory keyID = DIDUtils.genPublicKeyID(did,1);\n        string memory addrKey = DIDUtils.genAddrKey(addr);\n        string memory keyType = 'EcdsaSecp256k1RecoveryMethod2020';\n        PublicKey memory defaultKey = PublicKey(keyID,keyType,addrKey,false);\n                                   // https://www.w3.org/ns/did ->  \n        documents[did].contexts.push(\"https://www.w3.org/ns/did/v1\");\n        documents[did].id = did;\n        documents[did].publicKeys.push(defaultKey);\n        didState[did] = DIDState.Active;\n        idType[did] = IdType.User;\n    }\n\n    function getDocument(string memory did) public view \n        verifyFormat(did) \n        returns(Document memory) \n    {\n        Document memory dom = documents[did];\n        // for(uint256 i=0;i<dom.services.length;i++){\n        //     if(dom.services[i].disable) delete dom.services[i];\n        // }\n        for(uint256 i=0;i<dom.publicKeys.length;i++){\n            if(dom.publicKeys[i].disable) delete dom.publicKeys[i];\n        }\n        return  dom;\n    }\n\n\n    //'EcdsaSecp256k1VerificationKey2019'\n\n    function addPubKey(\n        string memory userInfo,\n        address addr) public \n        recheckExistDom(userInfo)\n    {\n        string memory did = DIDUtils.genDid(userInfo);\n        _addPubKey(did,addr);        \n    }\n    \n    \n    function _addPubKey(\n        string memory did,\n        address addr) internal \n        verifyFormat(did) checkActiveDom(did) checkExistAddr(did,addr)\n        returns(string memory)\n    {\n        uint256 index = documents[did].publicKeys.length;\n        string memory keyID = DIDUtils.genPublicKeyID(did,index+1);\n        string memory keyType = 'EcdsaSecp256k1VerificationKey2019';\n        string memory keyAddr = DIDUtils.genAddrKey(addr);\n        documents[did].publicKeys.push(PublicKey(keyID,keyType,keyAddr,false));\n    }\n    \n    //'EcdsaSecp256k1RecoveryMethod2020'\n    \n    function addAddrKey(\n        string memory userInfo,\n        address addr) public \n        recheckExistDom(userInfo)\n    {\n        string memory did = DIDUtils.genDid(userInfo);\n        _addAddrKey(did,addr);        \n    }\n   \n    function _addAddrKey(\n        string memory did,\n        address addr) internal \n        verifyFormat(did) checkActiveDom(did) checkExistAddr(did,addr)\n    {\n        uint256 index = documents[did].publicKeys.length;\n        string memory keyID = DIDUtils.genPublicKeyID(did,index+1);\n        string memory keyType = 'EcdsaSecp256k1RecoveryMethod2020';\n        string memory keyAddr = DIDUtils.genAddrKey(addr);\n        documents[did].publicKeys.push(PublicKey(keyID,keyType,keyAddr,false));  \n    }\n\n    // add service\n    function createSvc(\n        string memory svcInfo,\n        string memory endPoint,\n        string memory svcType,\n        address addr) public \n    {\n        _createSvc(svcInfo,endPoint,svcType,addr);    \n    }\n\n\n    function _createSvc(\n        string memory svcInfo,\n        string memory endPoint,\n        string memory svcType,\n        address addr) internal \n        checkExistDom(svcInfo)\n        returns(string memory svcId)\n    {\n        svcId = DIDUtils.genDid(svcInfo);\n        string memory keyID = DIDUtils.genPublicKeyID(svcId,1);\n        string memory addrKey = DIDUtils.genAddrKey(addr);\n        string memory keyType = 'EcdsaSecp256k1RecoveryMethod2020';\n        PublicKey memory defaultKey = PublicKey(keyID,keyType,addrKey,false);\n        documents[svcId].id = svcId;\n        documents[svcId].contexts.push(\"https://www.w3.org/ns/did/v1\");\n        documents[svcId].publicKeys.push(defaultKey);\n        documents[svcId].svcEndPoint=endPoint;\n        documents[svcId].svcType=svcType;\n        idType[svcId] = IdType.Service;\n        didState[svcId] = DIDState.Active;\n    }\n\n\n    //delete publickey did serviceDID\n\n\n\n\n    function recoverSignature(\n        string memory did, \n        string memory fType, \n        uint8 sigV, bytes32 sigR, bytes32 sigS) internal \n        returns(address)\n    {\n        bytes32 hash =  DIDUtils.genSignHash(fType, address(this), nonce[did], did);\n        address signer = ecrecover(hash, sigV, sigR, sigS);\n        nonce[did]++;\n        return signer;\n    }\n\n}\n\n//",
  "sourcePath": "/home/pslab154/project/did-registry-dev/contracts/DIDLedger.sol",
  "compiler": {
    "name": "solc",
    "version": "0.5.6+commit.b259423e.Emscripten.clang"
  },
  "schemaVersion": "2.0.2",
  "updatedAt": "2022-04-15T07:15:34.673Z"
}