{
  "contractName": "DIDUtils",
  "abi": [
    {
      "constant": true,
      "inputs": [
        {
          "name": "did",
          "type": "string"
        }
      ],
      "name": "verifyDidFormat",
      "outputs": [
        {
          "name": "",
          "type": "bool"
        }
      ],
      "payable": false,
      "stateMutability": "pure",
      "type": "function"
    },
    {
      "constant": true,
      "inputs": [
        {
          "name": "did",
          "type": "string"
        },
        {
          "name": "actor",
          "type": "string"
        },
        {
          "name": "controller",
          "type": "string"
        }
      ],
      "name": "verifyOwners",
      "outputs": [
        {
          "name": "",
          "type": "bool"
        }
      ],
      "payable": false,
      "stateMutability": "pure",
      "type": "function"
    },
    {
      "constant": true,
      "inputs": [
        {
          "name": "userInfo",
          "type": "string"
        }
      ],
      "name": "genDid",
      "outputs": [
        {
          "name": "",
          "type": "string"
        }
      ],
      "payable": false,
      "stateMutability": "pure",
      "type": "function"
    },
    {
      "constant": true,
      "inputs": [
        {
          "name": "did",
          "type": "string"
        },
        {
          "name": "index",
          "type": "uint256"
        }
      ],
      "name": "genPublicKeyID",
      "outputs": [
        {
          "name": "",
          "type": "string"
        }
      ],
      "payable": false,
      "stateMutability": "pure",
      "type": "function"
    },
    {
      "constant": true,
      "inputs": [
        {
          "name": "addr",
          "type": "address"
        }
      ],
      "name": "genAddrKey",
      "outputs": [
        {
          "name": "",
          "type": "string"
        }
      ],
      "payable": false,
      "stateMutability": "pure",
      "type": "function"
    },
    {
      "constant": true,
      "inputs": [
        {
          "name": "did",
          "type": "string"
        },
        {
          "name": "id",
          "type": "string"
        }
      ],
      "name": "genFragment",
      "outputs": [
        {
          "name": "",
          "type": "string"
        }
      ],
      "payable": false,
      "stateMutability": "pure",
      "type": "function"
    },
    {
      "constant": true,
      "inputs": [
        {
          "name": "fType",
          "type": "string"
        },
        {
          "name": "ledger",
          "type": "address"
        },
        {
          "name": "nonce",
          "type": "uint256"
        },
        {
          "name": "did",
          "type": "string"
        }
      ],
      "name": "genSignHash",
      "outputs": [
        {
          "name": "signHash",
          "type": "bytes32"
        }
      ],
      "payable": false,
      "stateMutability": "view",
      "type": "function"
    },
    {
      "constant": true,
      "inputs": [
        {
          "name": "str1",
          "type": "string"
        },
        {
          "name": "str2",
          "type": "string"
        }
      ],
      "name": "equalString",
      "outputs": [
        {
          "name": "",
          "type": "bool"
        }
      ],
      "payable": false,
      "stateMutability": "pure",
      "type": "function"
    },
    {
      "constant": true,
      "inputs": [
        {
          "name": "i",
          "type": "uint256"
        }
      ],
      "name": "uintToStr",
      "outputs": [
        {
          "name": "",
          "type": "string"
        }
      ],
      "payable": false,
      "stateMutability": "pure",
      "type": "function"
    }
  ],
  "bytecode": "0x61181d610026600b82828239805160001a60731461001957fe5b30600052607381538281f3fe73000000000000000000000000000000000000000030146080604052600436106100ba576000357c010000000000000000000000000000000000000000000000000000000090048063bbec18431161008d578063bbec18431461017f578063c754a53a146101af578063d06c84df146101df578063e948fc461461020f578063fc966d451461023f576100ba565b806344dd41e7146100bf57806356b79f61146100ef578063a4d1444c1461011f578063b01bd8171461014f575b600080fd5b6100d960048036036100d49190810190611206565b61026f565b6040516100e69190611650565b60405180910390f35b61010960048036036101049190810190611173565b610283565b604051610116919061166b565b60405180910390f35b61013960048036036101349190810190611309565b61035e565b6040516101469190611686565b60405180910390f35b61016960048036036101649190810190611206565b610392565b6040516101769190611686565b60405180910390f35b61019960048036036101949190810190611109565b6103be565b6040516101a69190611686565b60405180910390f35b6101c960048036036101c49190810190611272565b6103ef565b6040516101d69190611650565b60405180910390f35b6101f960048036036101f49190810190611132565b61042d565b6040516102069190611650565b60405180910390f35b61022960048036036102249190810190611132565b6104d7565b6040516102369190611686565b60405180910390f35b6102596004803603610254919081019061135d565b610500565b6040516102669190611686565b60405180910390f35b600061027b8383610512565b905092915050565b600060606040518060400160405280601881526020017f194b6c6179746e205369676e6564204d6573736167653a0a0000000000000000815250905060606102ca8661057f565b6040516020016102da919061160c565b6040516020818303038152906040529050606087826102f88861078b565b8760405160200161030c9493929190611570565b604051602081830303815290604052905082610328825161078b565b8260405160200161033b9392919061153f565b604051602081830303815290604052805190602001209350505050949350505050565b60608261036a8361078b565b60405160200161037b9291906115ae565b604051602081830303815290604052905092915050565b606082826040516020016103a79291906115dd565b604051602081830303815290604052905092915050565b60606103c98261057f565b6040516020016103d9919061160c565b6040516020818303038152906040529050919050565b60006103fb8484610512565b156104095760019050610426565b6104138284610512565b156104215760019050610426565b600090505b9392505050565b6000606082905060478151146104475760009150506104d2565b60606040518060400160405280600781526020017f6469643a6b743a000000000000000000000000000000000000000000000000008152509050606061049083600084516108d7565b905060606104a96104a485855160406108d7565b610963565b90506104b58383610512565b6104c65760009450505050506104d2565b60208151149450505050505b919050565b6060816040516020016104ea919061162e565b6040516020818303038152906040529050919050565b606061050b8261078b565b9050919050565b60008060019050835183518114600181146105305760009250610573565b600160208701838101602088015b60028483851001141561056e57805183511461055d5760009650600093505b60208301925060208101905061053e565b505050505b50508091505092915050565b60608060286040519080825280601f01601f1916602001820160405280156105b65781602001600182028038833980820191505090505b50905060008090505b60148110156107815760008160130360080260020a8573ffffffffffffffffffffffffffffffffffffffff16816105f257fe5b047f010000000000000000000000000000000000000000000000000000000000000002905060006010827f0100000000000000000000000000000000000000000000000000000000000000900460ff168161064957fe5b047f01000000000000000000000000000000000000000000000000000000000000000290506000817f01000000000000000000000000000000000000000000000000000000000000009004601002837f01000000000000000000000000000000000000000000000000000000000000009004037f01000000000000000000000000000000000000000000000000000000000000000290506106e982610b5f565b8585600202815181106106f857fe5b60200101907effffffffffffffffffffffffffffffffffffffffffffffffffffffffffffff1916908160001a90535061073081610b5f565b85600186600202018151811061074257fe5b60200101907effffffffffffffffffffffffffffffffffffffffffffffffffffffffffffff1916908160001a90535050505080806001019150506105bf565b5080915050919050565b606060008214156107d3576040518060400160405280600181526020017f300000000000000000000000000000000000000000000000000000000000000081525090506108d2565b600082905060005b600082146107fd578080600101915050600a82816107f557fe5b0491506107db565b6060816040519080825280601f01601f1916602001820160405280156108325781602001600182028038833980820191505090505b50905060006001830390505b600086146108ca57600a868161085057fe5b066030017f0100000000000000000000000000000000000000000000000000000000000000028282806001900393508151811061088957fe5b60200101907effffffffffffffffffffffffffffffffffffffffffffffffffffffffffffff1916908160001a905350600a86816108c257fe5b04955061083e565b819450505050505b919050565b6060818301845110156108e957600080fd5b606082156000811461090657604051915060208201604052610957565b6040519150601f8416801560200281840101858101878315602002848b0101015b818310156109445780518352602083019250602081019050610927565b50868552601f19601f8301166040525050505b50809150509392505050565b6060808290506000600282518161097657fe5b061461098157600080fd5b6060600282518161098e57fe5b046040519080825280601f01601f1916602001820160405280156109c15781602001600182028038833980820191505090505b50905060008090505b60028351816109d557fe5b04811015610b5457610a648360018360020201815181106109f257fe5b60200101517f010000000000000000000000000000000000000000000000000000000000000090047f0100000000000000000000000000000000000000000000000000000000000000027f01000000000000000000000000000000000000000000000000000000000000009004610c31565b6010610aea858460020281518110610a7857fe5b60200101517f010000000000000000000000000000000000000000000000000000000000000090047f0100000000000000000000000000000000000000000000000000000000000000027f01000000000000000000000000000000000000000000000000000000000000009004610c31565b02017f010000000000000000000000000000000000000000000000000000000000000002828281518110610b1a57fe5b60200101907effffffffffffffffffffffffffffffffffffffffffffffffffffffffffffff1916908160001a9053508060010190506109ca565b508092505050919050565b6000600a827f0100000000000000000000000000000000000000000000000000000000000000900460ff161015610be0576030827f01000000000000000000000000000000000000000000000000000000000000009004017f0100000000000000000000000000000000000000000000000000000000000000029050610c2c565b6057827f01000000000000000000000000000000000000000000000000000000000000009004017f01000000000000000000000000000000000000000000000000000000000000000290505b919050565b60007f30000000000000000000000000000000000000000000000000000000000000007effffffffffffffffffffffffffffffffffffffffffffffffffffffffffffff1916827f0100000000000000000000000000000000000000000000000000000000000000027effffffffffffffffffffffffffffffffffffffffffffffffffffffffffffff191610158015610d4f57507f39000000000000000000000000000000000000000000000000000000000000007effffffffffffffffffffffffffffffffffffffffffffffffffffffffffffff1916827f0100000000000000000000000000000000000000000000000000000000000000027effffffffffffffffffffffffffffffffffffffffffffffffffffffffffffff191611155b15610da1577f30000000000000000000000000000000000000000000000000000000000000007f0100000000000000000000000000000000000000000000000000000000000000900482039050611088565b7f61000000000000000000000000000000000000000000000000000000000000007effffffffffffffffffffffffffffffffffffffffffffffffffffffffffffff1916827f0100000000000000000000000000000000000000000000000000000000000000027effffffffffffffffffffffffffffffffffffffffffffffffffffffffffffff191610158015610ebd57507f66000000000000000000000000000000000000000000000000000000000000007effffffffffffffffffffffffffffffffffffffffffffffffffffffffffffff1916827f0100000000000000000000000000000000000000000000000000000000000000027effffffffffffffffffffffffffffffffffffffffffffffffffffffffffffff191611155b15610f12577f61000000000000000000000000000000000000000000000000000000000000007f0100000000000000000000000000000000000000000000000000000000000000900482600a01039050611088565b7f41000000000000000000000000000000000000000000000000000000000000007effffffffffffffffffffffffffffffffffffffffffffffffffffffffffffff1916827f0100000000000000000000000000000000000000000000000000000000000000027effffffffffffffffffffffffffffffffffffffffffffffffffffffffffffff19161015801561102e57507f46000000000000000000000000000000000000000000000000000000000000007effffffffffffffffffffffffffffffffffffffffffffffffffffffffffffff1916827f0100000000000000000000000000000000000000000000000000000000000000027effffffffffffffffffffffffffffffffffffffffffffffffffffffffffffff191611155b15611083577f41000000000000000000000000000000000000000000000000000000000000007f0100000000000000000000000000000000000000000000000000000000000000900482600a01039050611088565b600080fd5b919050565b60006110998235611754565b905092915050565b600082601f8301126110b257600080fd5b81356110c56110c0826116d5565b6116a8565b915080825260208301602083018583830111156110e157600080fd5b6110ec838284611790565b50505092915050565b60006111018235611786565b905092915050565b60006020828403121561111b57600080fd5b60006111298482850161108d565b91505092915050565b60006020828403121561114457600080fd5b600082013567ffffffffffffffff81111561115e57600080fd5b61116a848285016110a1565b91505092915050565b6000806000806080858703121561118957600080fd5b600085013567ffffffffffffffff8111156111a357600080fd5b6111af878288016110a1565b94505060206111c08782880161108d565b93505060406111d1878288016110f5565b925050606085013567ffffffffffffffff8111156111ee57600080fd5b6111fa878288016110a1565b91505092959194509250565b6000806040838503121561121957600080fd5b600083013567ffffffffffffffff81111561123357600080fd5b61123f858286016110a1565b925050602083013567ffffffffffffffff81111561125c57600080fd5b611268858286016110a1565b9150509250929050565b60008060006060848603121561128757600080fd5b600084013567ffffffffffffffff8111156112a157600080fd5b6112ad868287016110a1565b935050602084013567ffffffffffffffff8111156112ca57600080fd5b6112d6868287016110a1565b925050604084013567ffffffffffffffff8111156112f357600080fd5b6112ff868287016110a1565b9150509250925092565b6000806040838503121561131c57600080fd5b600083013567ffffffffffffffff81111561133657600080fd5b611342858286016110a1565b9250506020611353858286016110f5565b9150509250929050565b60006020828403121561136f57600080fd5b600061137d848285016110f5565b91505092915050565b61138f8161173e565b82525050565b61139e8161174a565b82525050565b60006113af82611701565b6113b98185611717565b93506113c981856020860161179f565b80840191505092915050565b60006113e08261170c565b6113ea8185611722565b93506113fa81856020860161179f565b611403816117d2565b840191505092915050565b60006114198261170c565b6114238185611733565b935061143381856020860161179f565b80840191505092915050565b600061144c600583611733565b91507f236b65792d0000000000000000000000000000000000000000000000000000006000830152600582019050919050565b600061148c600283611733565b91507f30780000000000000000000000000000000000000000000000000000000000006000830152600282019050919050565b60006114cc600783611733565b91507f6469643a6b743a000000000000000000000000000000000000000000000000006000830152600782019050919050565b600061150c600183611733565b91507f23000000000000000000000000000000000000000000000000000000000000006000830152600182019050919050565b600061154b82866113a4565b9150611557828561140e565b915061156382846113a4565b9150819050949350505050565b600061157c828761140e565b9150611588828661140e565b9150611594828561140e565b91506115a0828461140e565b915081905095945050505050565b60006115ba828561140e565b91506115c58261143f565b91506115d1828461140e565b91508190509392505050565b60006115e9828561140e565b91506115f4826114ff565b9150611600828461140e565b91508190509392505050565b60006116178261147f565b9150611623828461140e565b915081905092915050565b6000611639826114bf565b9150611645828461140e565b915081905092915050565b60006020820190506116656000830184611386565b92915050565b60006020820190506116806000830184611395565b92915050565b600060208201905081810360008301526116a081846113d5565b905092915050565b6000604051905081810181811067ffffffffffffffff821117156116cb57600080fd5b8060405250919050565b600067ffffffffffffffff8211156116ec57600080fd5b601f19601f8301169050602081019050919050565b600081519050919050565b600081519050919050565b600081905092915050565b600082825260208201905092915050565b600081905092915050565b60008115159050919050565b6000819050919050565b600061175f82611766565b9050919050565b600073ffffffffffffffffffffffffffffffffffffffff82169050919050565b6000819050919050565b82818337600083830152505050565b60005b838110156117bd5780820151818401526020810190506117a2565b838111156117cc576000848401525b50505050565b6000601f19601f830116905091905056fea265627a7a72305820286229e6155313cbe8283bbe5094f99af3c0bb6034aca42fda93bc094e36c02a6c6578706572696d656e74616cf50037",
  "source": "pragma solidity 0.5.6;\npragma experimental ABIEncoderV2;\n\nlibrary DIDUtils{\n    \n    // \"did:kt:6f4303aa6cea2b0fae462fa9cc792443c03a0609\"\n    // \"did:kt:2f0287f661aa87ee5d811fac157cbbe4f6cff8f04bffe26914f224d358b07159\"\n    function verifyDidFormat(string memory did) public pure \n        returns(bool)\n    {\n        bytes memory data = bytes(did);\n        if(data.length != 71) return false;\n        bytes memory prefix = bytes(\"did:kt:\");\n        bytes memory dataPrefix = _slice(data,0,prefix.length);\n        bytes memory userInfoBytes = _fromHex(string(_slice(data,prefix.length,64)));\n        if(!_equal(prefix, dataPrefix)) return false; //did 형식 확인\n        return (userInfoBytes.length == 32);//addressBytes.length == 20);\n    }\n    \n    function verifyOwners(\n        string memory did, \n        string memory actor, \n        string memory controller) public pure returns(bool)\n    {\n        if(_equal(bytes(did), bytes(actor))) return true;\n        if(_equal(bytes(controller), bytes(actor))) return true;\n        return false;\n    }\n    \n    /*\n    function genDid(address addr) public pure returns(string memory)\n    {\n        return string(abi.encodePacked('did:kt:',_addrToString(addr)));\n    }\n    */\n\n    //userInfo : did서버에서 사용자 정보를 해시해서 넘겨준 값 \n    // 6f4303aa6cea2b0fae462fa9cc792443c03a0609\n    function genDid(string memory userInfo) public pure returns(string memory)\n    {\n        return string(abi.encodePacked('did:kt:',userInfo)); //32byte 미만 으로 해야함 \n    }\n    \n    \n    function genPublicKeyID(\n        string memory did, \n        uint256 index) public pure returns(string memory)\n    {\n        return string(abi.encodePacked(did,'#key-', _uintToStr(index)));\n    }\n    \n    //address 형식 변환\n    function genAddrKey(\n        address addr) public pure returns(string memory)\n    {\n        return string(abi.encodePacked('0x',_addrToString(addr)));\n    }\n    \n    \n    function genFragment(\n        string memory did, \n        string memory id) public pure returns(string memory)\n    {\n        return string(abi.encodePacked(did,'#',id));\n    }\n    \n    function genSignHash(\n        string memory fType,\n        address ledger,\n        uint256 nonce,\n        string memory did) public view returns(bytes32 signHash)\n    {\n        bytes memory prefix = \"\\x19Klaytn Signed Message:\\n\";\n        string memory registry = string(abi.encodePacked('0x',_addrToString(ledger)));\n        bytes memory message = abi.encodePacked(fType,registry,_uintToStr(nonce),did);\n        return keccak256(abi.encodePacked(prefix,_uintToStr(message.length),message));\n    }    \n\n\n    function equalString(\n        string memory str1, \n        string memory str2) public pure returns(bool)\n    {\n        return _equal(bytes(str1),bytes(str2));\n    }\n    \n    function uintToStr(uint i) public pure returns(string memory){\n        return _uintToStr(i);\n    }\n    \n    \n    function _bytesToAddr(bytes memory _bs)\n        internal\n        pure\n        returns (address addr)\n    {\n        require(_bs.length == 20, \"bytes length does not match address\");\n        assembly {\n            addr := mload(add(_bs, 0x14))\n        }\n    }    \n    \n    \n    function _uintToStr(uint256 _i) internal pure returns(string memory _uintAsString)\n    {\n        if (_i == 0) {\n            return \"0\";\n        }\n        uint256 j = _i;\n        uint256 len;\n        while (j != 0) {\n            len++;\n            j /= 10;\n        }\n        bytes memory bstr = new bytes(len);\n        uint256 k = len - 1;\n        while (_i != 0) {\n            bstr[k--] = bytes1(uint8(48 + (_i % 10)));\n            _i /= 10;\n        }\n        return string(bstr);\n    }\n    \n    \n    function _addrToString(address x) internal pure returns (string memory) {\n        bytes memory s = new bytes(40);\n        for (uint i = 0; i < 20; i++) {\n            byte b = byte(uint8(uint(x) / (2**(8*(19 - i)))));\n            byte hi = byte(uint8(b) / 16);\n            byte lo = byte(uint8(b) - 16 * uint8(hi));\n            s[2*i] = _char(hi);\n            s[2*i+1] = _char(lo);            \n        }\n        return string(s);\n    }\n\n\n    function _char(byte b) internal pure returns (byte c) {\n        if (uint8(b) < 10) return byte(uint8(b) + 0x30);\n        else return byte(uint8(b) + 0x57);\n    }\n\n\n    function _equal(bytes memory _preBytes, bytes memory _postBytes)\n        internal pure returns (bool)\n    {\n        bool success = true;\n        assembly {\n            let length := mload(_preBytes)\n            switch eq(length, mload(_postBytes))\n                case 1 {\n                    let cb := 1\n                    let mc := add(_preBytes, 0x20)\n                    let end := add(mc, length)\n\n                    for {\n                        let cc := add(_postBytes, 0x20)\n                    } eq(add(lt(mc, end), cb), 2) {\n                        mc := add(mc, 0x20)\n                        cc := add(cc, 0x20)\n                    } {\n                        if iszero(eq(mload(mc), mload(cc))) {\n                            success := 0\n                            cb := 0\n                        }\n                    }\n                }\n                default {\n                    success := 0\n                }\n        }\n        return success;\n    }\n    \n    \n    function _slice(bytes memory _bytes,uint256 _start,uint256 _length) \n        internal pure returns (bytes memory) \n    {\n        require(_bytes.length >= (_start + _length));\n        bytes memory tempBytes;\n        assembly {\n            switch iszero(_length)\n                case 0 {\n                    tempBytes := mload(0x40)\n\n                    let lengthmod := and(_length, 31)\n\n                    let mc := add(\n                        add(tempBytes, lengthmod),\n                        mul(0x20, iszero(lengthmod))\n                    )\n                    let end := add(mc, _length)\n                    \n                    for {\n                        let cc := add(\n                            add(\n                                add(_bytes, lengthmod),\n                                mul(0x20, iszero(lengthmod))\n                            ),\n                            _start\n                        )\n                    } lt(mc, end) {\n                        mc := add(mc, 0x20)\n                        cc := add(cc, 0x20)\n                    } {\n                        mstore(mc, mload(cc))\n                    }\n                    mstore(tempBytes, _length)\n                    mstore(0x40, and(add(mc, 31), not(31)))\n                }\n                default {\n                    tempBytes := mload(0x40)\n\n                    mstore(0x40, add(tempBytes, 0x20))\n                }\n        }\n        return tempBytes;\n    }\n    \n    //study\n    function _fromHex(string memory s) internal pure returns (bytes memory) {\n        bytes memory ss = bytes(s); //40자\n        require(ss.length % 2 == 0);\n        bytes memory r = new bytes(ss.length / 2);\n        for (uint256 i = 0; i < ss.length / 2; ++i) {\n            r[i] = bytes1(\n                _fromHexChar(uint8(ss[2 * i])) *\n                    16 +\n                    _fromHexChar(uint8(ss[2 * i + 1]))\n            );\n        }\n        return r;\n    }\n    \n    \n    function _fromHexChar(uint8 c) internal pure returns (uint8) {\n        if (bytes1(c) >= bytes1(\"0\") && bytes1(c) <= bytes1(\"9\")) {\n            return c - uint8(bytes1(\"0\"));\n        }\n        if (bytes1(c) >= bytes1(\"a\") && bytes1(c) <= bytes1(\"f\")) {\n            return 10 + c - uint8(bytes1(\"a\"));\n        }\n        if (bytes1(c) >= bytes1(\"A\") && bytes1(c) <= bytes1(\"F\")) {\n            return 10 + c - uint8(bytes1(\"A\"));\n        }\n        revert();\n    }\n}",
  "sourcePath": "/home/pslab154/project/did-registry-dev/contracts/DIDUtils.sol",
  "compiler": {
    "name": "solc",
    "version": "0.5.6+commit.b259423e.Emscripten.clang"
  },
  "schemaVersion": "2.0.2",
  "updatedAt": "2022-04-15T07:15:34.683Z"
}